{
  "contractName": "AddressImpl",
  "abi": [
    {
      "stateMutability": "payable",
      "type": "receive"
    },
    {
      "inputs": [
        {
          "internalType": "address",
          "name": "account",
          "type": "address"
        }
      ],
      "name": "isContract",
      "outputs": [
        {
          "internalType": "bool",
          "name": "",
          "type": "bool"
        }
      ],
      "stateMutability": "view",
      "type": "function"
    },
    {
      "inputs": [
        {
          "internalType": "address",
          "name": "account",
          "type": "address"
        }
      ],
      "name": "toPayable",
      "outputs": [
        {
          "internalType": "address payable",
          "name": "",
          "type": "address"
        }
      ],
      "stateMutability": "pure",
      "type": "function"
    },
    {
      "inputs": [
        {
          "internalType": "address payable",
          "name": "receiver",
          "type": "address"
        },
        {
          "internalType": "uint256",
          "name": "amount",
          "type": "uint256"
        }
      ],
      "name": "sendValue",
      "outputs": [],
      "stateMutability": "nonpayable",
      "type": "function"
    }
  ],
  "bytecode": "0x608060405234801561001057600080fd5b506103e1806100206000396000f3fe6080604052600436106100385760003560e01c8063162790551461004457806324a084df146100ad57806351ecabd6146101085761003f565b3661003f57005b600080fd5b34801561005057600080fd5b506100936004803603602081101561006757600080fd5b81019080803573ffffffffffffffffffffffffffffffffffffffff169060200190929190505050610199565b604051808215151515815260200191505060405180910390f35b3480156100b957600080fd5b50610106600480360360408110156100d057600080fd5b81019080803573ffffffffffffffffffffffffffffffffffffffff169060200190929190803590602001909291905050506101ab565b005b34801561011457600080fd5b506101576004803603602081101561012b57600080fd5b81019080803573ffffffffffffffffffffffffffffffffffffffff1690602001909291905050506101b9565b604051808273ffffffffffffffffffffffffffffffffffffffff1673ffffffffffffffffffffffffffffffffffffffff16815260200191505060405180910390f35b60006101a4826101cb565b9050919050565b6101b58282610216565b5050565b60006101c482610367565b9050919050565b60008060007fc5d2460186f7233c927e7db2dcc703c0e500b653ca82273b7bfad8045d85a47060001b9050833f915080821415801561020d57506000801b8214155b92505050919050565b803073ffffffffffffffffffffffffffffffffffffffff163110156102a3576040517f08c379a000000000000000000000000000000000000000000000000000000000815260040180806020018281038252601d8152602001807f416464726573733a20696e73756666696369656e742062616c616e636500000081525060200191505060405180910390fd5b60008273ffffffffffffffffffffffffffffffffffffffff168260405180600001905060006040518083038185875af1925050503d8060008114610303576040519150601f19603f3d011682016040523d82523d6000602084013e610308565b606091505b5050905080610362576040517f08c379a000000000000000000000000000000000000000000000000000000000815260040180806020018281038252603a815260200180610372603a913960400191505060405180910390fd5b505050565b600081905091905056fe416464726573733a20756e61626c6520746f2073656e642076616c75652c20726563697069656e74206d61792068617665207265766572746564a26469706673582212202da60d23ae816bf63a8c15da50ce5235a27b030ca78f082b9af4b713163d1d3364736f6c63430006000033",
  "source": "pragma solidity ^0.6.0;\n\nimport \"../utils/Address.sol\";\n\ncontract AddressImpl {\n    function isContract(address account) external view returns (bool) {\n        return Address.isContract(account);\n    }\n\n    function toPayable(address account) external pure returns (address payable) {\n        return Address.toPayable(account);\n    }\n\n    function sendValue(address payable receiver, uint256 amount) external {\n        Address.sendValue(receiver, amount);\n    }\n\n    // sendValue's tests require the contract to hold Ether\n    receive () external payable { }\n}\n",
  "sourcePath": "/Users/brock/Documents/GitHub/arrakis-buidl/contracts/openzeppelin/contracts/mocks/AddressImpl.sol",
  "compiler": {
    "name": "solc",
    "version": "0.6.0+commit.26b70077.Emscripten.clang"
  },
  "schemaVersion": "3.0.23",
  "updatedAt": "2020-02-15T23:43:10.238Z",
  "devdoc": {
    "methods": {}
  },
  "userdoc": {
    "methods": {}
  }
}