{
  "contractName": "CountersImpl",
  "abi": [
    {
      "inputs": [],
      "name": "current",
      "outputs": [
        {
          "internalType": "uint256",
          "name": "",
          "type": "uint256"
        }
      ],
      "stateMutability": "view",
      "type": "function"
    },
    {
      "inputs": [],
      "name": "increment",
      "outputs": [],
      "stateMutability": "nonpayable",
      "type": "function"
    },
    {
      "inputs": [],
      "name": "decrement",
      "outputs": [],
      "stateMutability": "nonpayable",
      "type": "function"
    }
  ],
  "bytecode": "0x608060405234801561001057600080fd5b50610228806100206000396000f3fe608060405234801561001057600080fd5b50600436106100415760003560e01c80632baeceb7146100465780639fa6a6e314610050578063d09de08a1461006e575b600080fd5b61004e610078565b005b610058610084565b6040518082815260200191505060405180910390f35b610076610095565b005b61008260006100a1565b565b600061009060006100c4565b905090565b61009f60006100d2565b565b6100b9600182600001546100e890919063ffffffff16565b816000018190555050565b600081600001549050919050565b6001816000016000828254019250508190555050565b600061012a83836040518060400160405280601e81526020017f536166654d6174683a207375627472616374696f6e206f766572666c6f770000815250610132565b905092915050565b60008383111582906101df576040517f08c379a00000000000000000000000000000000000000000000000000000000081526004018080602001828103825283818151815260200191508051906020019080838360005b838110156101a4578082015181840152602081019050610189565b50505050905090810190601f1680156101d15780820380516001836020036101000a031916815260200191505b509250505060405180910390fd5b506000838503905080915050939250505056fea2646970667358221220670d5f6bb9b2cacf0152dcee8fa66ae60dae76b31e883f57523db06217182e2764736f6c63430006000033",
  "source": "pragma solidity ^0.6.0;\r\n\r\nimport \"../drafts/Counters.sol\";\r\n\r\ncontract CountersImpl {\r\n    using Counters for Counters.Counter;\r\n\r\n    Counters.Counter private _counter;\r\n\r\n    function current() public view returns (uint256) {\r\n        return _counter.current();\r\n    }\r\n\r\n    function increment() public {\r\n        _counter.increment();\r\n    }\r\n\r\n    function decrement() public {\r\n        _counter.decrement();\r\n    }\r\n}\r\n",
  "sourcePath": "C:\\Users\\alexa_o12f\\Documents\\Programs\\arrakis-buidl\\contracts\\openzeppelin\\contracts\\mocks\\CountersImpl.sol",
  "compiler": {
    "name": "solc",
    "version": "0.6.0+commit.26b70077.Emscripten.clang"
  },
  "schemaVersion": "3.0.23",
  "updatedAt": "2020-02-15T23:11:41.088Z",
  "devdoc": {
    "methods": {}
  },
  "userdoc": {
    "methods": {}
  }
}