{
  "contractName": "ERC1820ImplementerMock",
  "abi": [
    {
      "inputs": [
        {
          "internalType": "bytes32",
          "name": "interfaceHash",
          "type": "bytes32"
        },
        {
          "internalType": "address",
          "name": "account",
          "type": "address"
        }
      ],
      "name": "canImplementInterfaceForAddress",
      "outputs": [
        {
          "internalType": "bytes32",
          "name": "",
          "type": "bytes32"
        }
      ],
      "stateMutability": "view",
      "type": "function"
    },
    {
      "inputs": [
        {
          "internalType": "bytes32",
          "name": "interfaceHash",
          "type": "bytes32"
        },
        {
          "internalType": "address",
          "name": "account",
          "type": "address"
        }
      ],
      "name": "registerInterfaceForAddress",
      "outputs": [],
      "stateMutability": "nonpayable",
      "type": "function"
    }
  ],
  "bytecode": "0x608060405234801561001057600080fd5b50610257806100206000396000f3fe608060405234801561001057600080fd5b50600436106100365760003560e01c8063249cb3fa1461003b5780635536e45d1461009d575b600080fd5b6100876004803603604081101561005157600080fd5b8101908080359060200190929190803573ffffffffffffffffffffffffffffffffffffffff1690602001909291905050506100eb565b6040518082815260200191505060405180910390f35b6100e9600480360360408110156100b357600080fd5b8101908080359060200190929190803573ffffffffffffffffffffffffffffffffffffffff1690602001909291905050506101a7565b005b600080600084815260200190815260200160002060008373ffffffffffffffffffffffffffffffffffffffff1673ffffffffffffffffffffffffffffffffffffffff16815260200190815260200160002060009054906101000a900460ff16610157576000801b61019f565b60405160200180807f455243313832305f4143434550545f4d414749430000000000000000000000008152506014019050604051602081830303815290604052805190602001205b905092915050565b6101b182826101b5565b5050565b600160008084815260200190815260200160002060008373ffffffffffffffffffffffffffffffffffffffff1673ffffffffffffffffffffffffffffffffffffffff16815260200190815260200160002060006101000a81548160ff021916908315150217905550505056fea26469706673582212201f7973a574cc72abf470cdfd69f1be6cc091d6f28b017aeb5a030a6231eeb9dd64736f6c63430006000033",
  "source": "pragma solidity ^0.6.0;\n\nimport \"../introspection/ERC1820Implementer.sol\";\n\ncontract ERC1820ImplementerMock is ERC1820Implementer {\n    function registerInterfaceForAddress(bytes32 interfaceHash, address account) public {\n        _registerInterfaceForAddress(interfaceHash, account);\n    }\n}\n",
  "sourcePath": "/Users/brock/Documents/GitHub/arrakis-buidl/contracts/openzeppelin/contracts/mocks/ERC1820ImplementerMock.sol",
  "compiler": {
    "name": "solc",
    "version": "0.6.0+commit.26b70077.Emscripten.clang"
  },
  "schemaVersion": "3.0.23",
  "updatedAt": "2020-02-15T23:43:10.262Z",
  "devdoc": {
    "methods": {}
  },
  "userdoc": {
    "methods": {
      "canImplementInterfaceForAddress(bytes32,address)": {
        "notice": "See {IERC1820Implementer-canImplementInterfaceForAddress}."
      }
    }
  }
}