{
  "contractName": "ERC20NoReturnMock",
  "abi": [
    {
      "inputs": [
        {
          "internalType": "address",
          "name": "",
          "type": "address"
        },
        {
          "internalType": "uint256",
          "name": "",
          "type": "uint256"
        }
      ],
      "name": "transfer",
      "outputs": [],
      "stateMutability": "nonpayable",
      "type": "function"
    },
    {
      "inputs": [
        {
          "internalType": "address",
          "name": "",
          "type": "address"
        },
        {
          "internalType": "address",
          "name": "",
          "type": "address"
        },
        {
          "internalType": "uint256",
          "name": "",
          "type": "uint256"
        }
      ],
      "name": "transferFrom",
      "outputs": [],
      "stateMutability": "nonpayable",
      "type": "function"
    },
    {
      "inputs": [
        {
          "internalType": "address",
          "name": "",
          "type": "address"
        },
        {
          "internalType": "uint256",
          "name": "",
          "type": "uint256"
        }
      ],
      "name": "approve",
      "outputs": [],
      "stateMutability": "nonpayable",
      "type": "function"
    },
    {
      "inputs": [
        {
          "internalType": "uint256",
          "name": "allowance_",
          "type": "uint256"
        }
      ],
      "name": "setAllowance",
      "outputs": [],
      "stateMutability": "nonpayable",
      "type": "function"
    },
    {
      "inputs": [
        {
          "internalType": "address",
          "name": "owner",
          "type": "address"
        },
        {
          "internalType": "address",
          "name": "",
          "type": "address"
        }
      ],
      "name": "allowance",
      "outputs": [
        {
          "internalType": "uint256",
          "name": "",
          "type": "uint256"
        }
      ],
      "stateMutability": "view",
      "type": "function"
    }
  ],
  "bytecode": "0x6080604052610305806100136000396000f3fe608060405234801561001057600080fd5b50600436106100575760003560e01c8063095ea7b31461005c57806323b872dd146100aa5780633ba93f2614610118578063a9059cbb14610146578063dd62ed3e14610194575b600080fd5b6100a86004803603604081101561007257600080fd5b81019080803573ffffffffffffffffffffffffffffffffffffffff1690602001909291908035906020019092919050505061020c565b005b610116600480360360608110156100c057600080fd5b81019080803573ffffffffffffffffffffffffffffffffffffffff169060200190929190803573ffffffffffffffffffffffffffffffffffffffff16906020019092919080359060200190929190505050610218565b005b6101446004803603602081101561012e57600080fd5b8101908080359060200190929190505050610225565b005b6101926004803603604081101561015c57600080fd5b81019080803573ffffffffffffffffffffffffffffffffffffffff16906020019092919080359060200190929190505050610272565b005b6101f6600480360360408110156101aa57600080fd5b81019080803573ffffffffffffffffffffffffffffffffffffffff169060200190929190803573ffffffffffffffffffffffffffffffffffffffff16906020019092919050505061027e565b6040518082815260200191505060405180910390f35b60006001819055505050565b6000600181905550505050565b806000806102316102c7565b73ffffffffffffffffffffffffffffffffffffffff1673ffffffffffffffffffffffffffffffffffffffff1681526020019081526020016000208190555050565b60006001819055505050565b60008060008473ffffffffffffffffffffffffffffffffffffffff1673ffffffffffffffffffffffffffffffffffffffff16815260200190815260200160002054905092915050565b60003390509056fea26469706673582212208229c2ce1aa65d88016da3cd2a5108d76f0b9de71b3988868da351533a2c9b5d64736f6c63430006000033",
  "source": "pragma solidity ^0.6.0;\r\n\r\nimport \"../GSN/Context.sol\";\r\nimport \"../token/ERC20/IERC20.sol\";\r\nimport \"../token/ERC20/SafeERC20.sol\";\r\n\r\ncontract ERC20ReturnFalseMock is Context {\r\n    uint256 private _allowance;\r\n\r\n    // IERC20's functions are not pure, but these mock implementations are: to prevent Solidity from issuing warnings,\r\n    // we write to a dummy state variable.\r\n    uint256 private _dummy;\r\n\r\n    function transfer(address, uint256) public returns (bool) {\r\n        _dummy = 0;\r\n        return false;\r\n    }\r\n\r\n    function transferFrom(address, address, uint256) public returns (bool) {\r\n        _dummy = 0;\r\n        return false;\r\n    }\r\n\r\n    function approve(address, uint256) public returns (bool) {\r\n        _dummy = 0;\r\n        return false;\r\n    }\r\n\r\n    function allowance(address, address) public view returns (uint256) {\r\n        require(_dummy == 0); // Duummy read from a state variable so that the function is view\r\n        return 0;\r\n    }\r\n}\r\n\r\ncontract ERC20ReturnTrueMock is Context {\r\n    mapping (address => uint256) private _allowances;\r\n\r\n    // IERC20's functions are not pure, but these mock implementations are: to prevent Solidity from issuing warnings,\r\n    // we write to a dummy state variable.\r\n    uint256 private _dummy;\r\n\r\n    function transfer(address, uint256) public returns (bool) {\r\n        _dummy = 0;\r\n        return true;\r\n    }\r\n\r\n    function transferFrom(address, address, uint256) public returns (bool) {\r\n        _dummy = 0;\r\n        return true;\r\n    }\r\n\r\n    function approve(address, uint256) public returns (bool) {\r\n        _dummy = 0;\r\n        return true;\r\n    }\r\n\r\n    function setAllowance(uint256 allowance_) public {\r\n        _allowances[_msgSender()] = allowance_;\r\n    }\r\n\r\n    function allowance(address owner, address) public view returns (uint256) {\r\n        return _allowances[owner];\r\n    }\r\n}\r\n\r\ncontract ERC20NoReturnMock is Context {\r\n    mapping (address => uint256) private _allowances;\r\n\r\n    // IERC20's functions are not pure, but these mock implementations are: to prevent Solidity from issuing warnings,\r\n    // we write to a dummy state variable.\r\n    uint256 private _dummy;\r\n\r\n    function transfer(address, uint256) public {\r\n        _dummy = 0;\r\n    }\r\n\r\n    function transferFrom(address, address, uint256) public {\r\n        _dummy = 0;\r\n    }\r\n\r\n    function approve(address, uint256) public {\r\n        _dummy = 0;\r\n    }\r\n\r\n    function setAllowance(uint256 allowance_) public {\r\n        _allowances[_msgSender()] = allowance_;\r\n    }\r\n\r\n    function allowance(address owner, address) public view returns (uint256) {\r\n        return _allowances[owner];\r\n    }\r\n}\r\n\r\ncontract SafeERC20Wrapper is Context {\r\n    using SafeERC20 for IERC20;\r\n\r\n    IERC20 private _token;\r\n\r\n    constructor (IERC20 token) public {\r\n        _token = token;\r\n    }\r\n\r\n    function transfer() public {\r\n        _token.safeTransfer(address(0), 0);\r\n    }\r\n\r\n    function transferFrom() public {\r\n        _token.safeTransferFrom(address(0), address(0), 0);\r\n    }\r\n\r\n    function approve(uint256 amount) public {\r\n        _token.safeApprove(address(0), amount);\r\n    }\r\n\r\n    function increaseAllowance(uint256 amount) public {\r\n        _token.safeIncreaseAllowance(address(0), amount);\r\n    }\r\n\r\n    function decreaseAllowance(uint256 amount) public {\r\n        _token.safeDecreaseAllowance(address(0), amount);\r\n    }\r\n\r\n    function setAllowance(uint256 allowance_) public {\r\n        ERC20ReturnTrueMock(address(_token)).setAllowance(allowance_);\r\n    }\r\n\r\n    function allowance() public view returns (uint256) {\r\n        return _token.allowance(address(0), address(0));\r\n    }\r\n}\r\n",
  "sourcePath": "C:\\Users\\alexa_o12f\\Documents\\Programs\\arrakis-buidl\\contracts\\openzeppelin\\contracts\\mocks\\SafeERC20Helper.sol",
  "compiler": {
    "name": "solc",
    "version": "0.6.0+commit.26b70077.Emscripten.clang"
  },
  "schemaVersion": "3.0.23",
  "updatedAt": "2020-02-15T23:11:41.351Z",
  "devdoc": {
    "methods": {}
  },
  "userdoc": {
    "methods": {}
  }
}