{
  "contractName": "MerkleProofWrapper",
  "abi": [
    {
      "inputs": [
        {
          "internalType": "bytes32[]",
          "name": "proof",
          "type": "bytes32[]"
        },
        {
          "internalType": "bytes32",
          "name": "root",
          "type": "bytes32"
        },
        {
          "internalType": "bytes32",
          "name": "leaf",
          "type": "bytes32"
        }
      ],
      "name": "verify",
      "outputs": [
        {
          "internalType": "bool",
          "name": "",
          "type": "bool"
        }
      ],
      "stateMutability": "pure",
      "type": "function"
    }
  ],
  "bytecode": "0x608060405234801561001057600080fd5b50610218806100206000396000f3fe608060405234801561001057600080fd5b506004361061002b5760003560e01c80635a9a49c714610030575b600080fd5b6100fa6004803603606081101561004657600080fd5b810190808035906020019064010000000081111561006357600080fd5b82018360208201111561007557600080fd5b8035906020019184602083028401116401000000008311171561009757600080fd5b919080806020026020016040519081016040528093929190818152602001838360200280828437600081840152601f19601f8201169050808301925050505050505091929192908035906020019092919080359060200190929190505050610114565b604051808215151515815260200191505060405180910390f35b600061012184848461012a565b90509392505050565b60008082905060008090505b85518110156101d457600086828151811061014d57fe5b6020026020010151905080831161019457828160405160200180838152602001828152602001925050506040516020818303038152906040528051906020012092506101c6565b808360405160200180838152602001828152602001925050506040516020818303038152906040528051906020012092505b508080600101915050610136565b50838114915050939250505056fea2646970667358221220c9646b0cfe7bd4bf2edfd92b469ccd8bc4da39c7c9dd5c8e2595931398812db264736f6c63430006000033",
  "source": "pragma solidity ^0.6.0;\n\nimport { MerkleProof } from \"../cryptography/MerkleProof.sol\";\n\ncontract MerkleProofWrapper {\n    function verify(bytes32[] memory proof, bytes32 root, bytes32 leaf) public pure returns (bool) {\n        return MerkleProof.verify(proof, root, leaf);\n    }\n}\n",
  "sourcePath": "/Users/brock/Documents/GitHub/arrakis-buidl/contracts/openzeppelin/contracts/mocks/MerkleProofWrapper.sol",
  "compiler": {
    "name": "solc",
    "version": "0.6.0+commit.26b70077.Emscripten.clang"
  },
  "schemaVersion": "3.0.23",
  "updatedAt": "2020-02-15T23:43:10.314Z",
  "devdoc": {
    "methods": {}
  },
  "userdoc": {
    "methods": {}
  }
}