{
  "contractName": "OwnableInterfaceId",
  "abi": [
    {
      "inputs": [],
      "name": "getInterfaceId",
      "outputs": [
        {
          "internalType": "bytes4",
          "name": "",
          "type": "bytes4"
        }
      ],
      "stateMutability": "pure",
      "type": "function"
    }
  ],
  "bytecode": "0x608060405234801561001057600080fd5b50610152806100206000396000f3fe608060405234801561001057600080fd5b506004361061002b5760003560e01c80636b9241fc14610030575b600080fd5b61003861008c565b60405180827bffffffffffffffffffffffffffffffffffffffffffffffffffffffff19167bffffffffffffffffffffffffffffffffffffffffffffffffffffffff1916815260200191505060405180910390f35b6000808073ffffffffffffffffffffffffffffffffffffffff1663f2fde38b905060e01b8173ffffffffffffffffffffffffffffffffffffffff1663715018a6905060e01b8273ffffffffffffffffffffffffffffffffffffffff16638f32d59b905060e01b8373ffffffffffffffffffffffffffffffffffffffff16638da5cb5b905060e01b1818189150509056fea2646970667358221220102281c98c8a11f71e7f4c4b7e13d2530830093a71735a1a6e4766f7594289d964736f6c63430006000033",
  "source": "pragma solidity ^0.6.0;\r\n\r\nimport \"../ownership/Ownable.sol\";\r\n\r\n/**\r\n * @title Ownable interface id calculator.\r\n * @dev See the EIP165 specification for more information:\r\n * https://eips.ethereum.org/EIPS/eip-165#specification\r\n */\r\ncontract OwnableInterfaceId {\r\n    function getInterfaceId() public pure returns (bytes4) {\r\n        Ownable i;\r\n        return i.owner.selector ^ i.isOwner.selector ^ i.renounceOwnership.selector ^ i.transferOwnership.selector;\r\n    }\r\n}\r\n",
  "sourcePath": "C:\\Users\\alexa_o12f\\Documents\\Programs\\arrakis-buidl\\contracts\\openzeppelin\\contracts\\mocks\\OwnableInterfaceId.sol",
  "compiler": {
    "name": "solc",
    "version": "0.6.0+commit.26b70077.Emscripten.clang"
  },
  "schemaVersion": "3.0.23",
  "updatedAt": "2020-02-15T23:11:41.304Z",
  "devdoc": {
    "details": "See the EIP165 specification for more information: https://eips.ethereum.org/EIPS/eip-165#specification",
    "methods": {},
    "title": "Ownable interface id calculator."
  },
  "userdoc": {
    "methods": {}
  }
}