{
  "contractName": "Rad",
  "abi": [
    {
      "inputs": [],
      "stateMutability": "nonpayable",
      "type": "constructor"
    },
    {
      "anonymous": false,
      "inputs": [
        {
          "indexed": true,
          "internalType": "address",
          "name": "_approver",
          "type": "address"
        },
        {
          "indexed": true,
          "internalType": "address",
          "name": "_approved",
          "type": "address"
        }
      ],
      "name": "Approve",
      "type": "event"
    },
    {
      "anonymous": false,
      "inputs": [
        {
          "indexed": true,
          "internalType": "address",
          "name": "_claimant",
          "type": "address"
        },
        {
          "indexed": true,
          "internalType": "address",
          "name": "_source",
          "type": "address"
        },
        {
          "indexed": false,
          "internalType": "uint256",
          "name": "_identification",
          "type": "uint256"
        }
      ],
      "name": "ClaimReward",
      "type": "event"
    },
    {
      "anonymous": false,
      "inputs": [
        {
          "indexed": true,
          "internalType": "address",
          "name": "_creator",
          "type": "address"
        },
        {
          "indexed": true,
          "internalType": "address",
          "name": "_source",
          "type": "address"
        },
        {
          "indexed": false,
          "internalType": "string",
          "name": "_metadata",
          "type": "string"
        }
      ],
      "name": "PostReward",
      "type": "event"
    },
    {
      "inputs": [
        {
          "internalType": "uint256",
          "name": "",
          "type": "uint256"
        }
      ],
      "name": "_timesClaimed",
      "outputs": [
        {
          "internalType": "uint256",
          "name": "",
          "type": "uint256"
        }
      ],
      "stateMutability": "view",
      "type": "function",
      "constant": true
    },
    {
      "inputs": [
        {
          "internalType": "address",
          "name": "",
          "type": "address"
        }
      ],
      "name": "_totalClaims",
      "outputs": [
        {
          "internalType": "uint256",
          "name": "",
          "type": "uint256"
        }
      ],
      "stateMutability": "view",
      "type": "function",
      "constant": true
    },
    {
      "inputs": [],
      "name": "actualName",
      "outputs": [
        {
          "internalType": "string",
          "name": "",
          "type": "string"
        }
      ],
      "stateMutability": "view",
      "type": "function",
      "constant": true
    },
    {
      "inputs": [],
      "name": "admin",
      "outputs": [
        {
          "internalType": "address",
          "name": "",
          "type": "address"
        }
      ],
      "stateMutability": "view",
      "type": "function",
      "constant": true
    },
    {
      "inputs": [
        {
          "internalType": "uint256",
          "name": "",
          "type": "uint256"
        },
        {
          "internalType": "uint256",
          "name": "",
          "type": "uint256"
        }
      ],
      "name": "interfaceType",
      "outputs": [
        {
          "internalType": "bool",
          "name": "",
          "type": "bool"
        }
      ],
      "stateMutability": "view",
      "type": "function",
      "constant": true
    },
    {
      "inputs": [
        {
          "internalType": "uint256",
          "name": "",
          "type": "uint256"
        }
      ],
      "name": "nftName",
      "outputs": [
        {
          "internalType": "string",
          "name": "",
          "type": "string"
        }
      ],
      "stateMutability": "view",
      "type": "function",
      "constant": true
    },
    {
      "inputs": [],
      "name": "reward",
      "outputs": [
        {
          "internalType": "string",
          "name": "",
          "type": "string"
        }
      ],
      "stateMutability": "view",
      "type": "function",
      "constant": true
    },
    {
      "inputs": [
        {
          "internalType": "address",
          "name": "",
          "type": "address"
        },
        {
          "internalType": "address",
          "name": "",
          "type": "address"
        }
      ],
      "name": "rewardId",
      "outputs": [
        {
          "internalType": "uint256",
          "name": "",
          "type": "uint256"
        }
      ],
      "stateMutability": "view",
      "type": "function",
      "constant": true
    },
    {
      "inputs": [],
      "name": "rewardNonce",
      "outputs": [
        {
          "internalType": "uint256",
          "name": "",
          "type": "uint256"
        }
      ],
      "stateMutability": "view",
      "type": "function",
      "constant": true
    },
    {
      "inputs": [
        {
          "internalType": "uint256",
          "name": "",
          "type": "uint256"
        }
      ],
      "name": "rewardSourceAddress",
      "outputs": [
        {
          "internalType": "address",
          "name": "",
          "type": "address"
        }
      ],
      "stateMutability": "view",
      "type": "function",
      "constant": true
    },
    {
      "inputs": [
        {
          "internalType": "uint256",
          "name": "",
          "type": "uint256"
        }
      ],
      "name": "rewardString",
      "outputs": [
        {
          "internalType": "string",
          "name": "",
          "type": "string"
        }
      ],
      "stateMutability": "view",
      "type": "function",
      "constant": true
    },
    {
      "inputs": [],
      "name": "testBalance",
      "outputs": [
        {
          "internalType": "uint256",
          "name": "",
          "type": "uint256"
        }
      ],
      "stateMutability": "view",
      "type": "function",
      "constant": true
    },
    {
      "inputs": [
        {
          "internalType": "address",
          "name": "_source",
          "type": "address"
        },
        {
          "internalType": "string",
          "name": "_reward",
          "type": "string"
        },
        {
          "internalType": "bool",
          "name": "_erc20",
          "type": "bool"
        },
        {
          "internalType": "bool",
          "name": "_erc721",
          "type": "bool"
        }
      ],
      "name": "postReward",
      "outputs": [
        {
          "internalType": "uint256",
          "name": "id",
          "type": "uint256"
        }
      ],
      "stateMutability": "nonpayable",
      "type": "function"
    },
    {
      "inputs": [
        {
          "internalType": "uint256",
          "name": "_identification",
          "type": "uint256"
        }
      ],
      "name": "claimReward",
      "outputs": [
        {
          "internalType": "bool",
          "name": "success",
          "type": "bool"
        }
      ],
      "stateMutability": "nonpayable",
      "type": "function"
    },
    {
      "inputs": [
        {
          "internalType": "address",
          "name": "_claimant",
          "type": "address"
        },
        {
          "internalType": "address",
          "name": "_viewer",
          "type": "address"
        }
      ],
      "name": "approve",
      "outputs": [
        {
          "internalType": "bool",
          "name": "",
          "type": "bool"
        }
      ],
      "stateMutability": "nonpayable",
      "type": "function"
    },
    {
      "inputs": [
        {
          "internalType": "address",
          "name": "_claimant",
          "type": "address"
        },
        {
          "internalType": "uint256",
          "name": "_identification",
          "type": "uint256"
        }
      ],
      "name": "isRewardClaimant",
      "outputs": [
        {
          "internalType": "bool",
          "name": "",
          "type": "bool"
        }
      ],
      "stateMutability": "view",
      "type": "function",
      "constant": true
    },
    {
      "inputs": [
        {
          "internalType": "address",
          "name": "_poster",
          "type": "address"
        },
        {
          "internalType": "uint256",
          "name": "_identification",
          "type": "uint256"
        }
      ],
      "name": "isRewardPoster",
      "outputs": [
        {
          "internalType": "bool",
          "name": "",
          "type": "bool"
        }
      ],
      "stateMutability": "view",
      "type": "function",
      "constant": true
    }
  ],
  "bytecode": "0x608060405234801561001057600080fd5b50336000806101000a81548173ffffffffffffffffffffffffffffffffffffffff021916908373ffffffffffffffffffffffffffffffffffffffff16021790555060006002819055506001600381905550600260048190555067016345785d8a0000600581905550611b59806100876000396000f3fe608060405234801561001057600080fd5b506004361061010b5760003560e01c8063822a32fe116100a2578063c83de91f11610071578063c83de91f1461069b578063cda1704714610709578063d01b0db41461076f578063edede601146107e7578063f851a440146108055761010b565b8063822a32fe146104c5578063a78e5fa614610507578063ae169a50146105ae578063af3de4ae146105f45761010b565b80637aa6046f116100de5780637aa6046f1461029a5780637e5465ba146102f2578063804e7ab31461036e57806380aaecfa146104755761010b565b8063228cb7331461011057806345239cce146101935780634fbd08ca146101b15780636b49e95c14610217575b600080fd5b61011861084f565b6040518080602001828103825283818151815260200191508051906020019080838360005b8381101561015857808201518184015260208101905061013d565b50505050905090810190601f1680156101855780820380516001836020036101000a031916815260200191505b509250505060405180910390f35b61019b6108ed565b6040518082815260200191505060405180910390f35b6101fd600480360360408110156101c757600080fd5b81019080803573ffffffffffffffffffffffffffffffffffffffff169060200190929190803590602001909291905050506108f3565b604051808215151515815260200191505060405180910390f35b61021f610a3a565b6040518080602001828103825283818151815260200191508051906020019080838360005b8381101561025f578082015181840152602081019050610244565b50505050905090810190601f16801561028c5780820380516001836020036101000a031916815260200191505b509250505060405180910390f35b6102dc600480360360208110156102b057600080fd5b81019080803573ffffffffffffffffffffffffffffffffffffffff169060200190929190505050610ad8565b6040518082815260200191505060405180910390f35b6103546004803603604081101561030857600080fd5b81019080803573ffffffffffffffffffffffffffffffffffffffff169060200190929190803573ffffffffffffffffffffffffffffffffffffffff169060200190929190505050610af0565b604051808215151515815260200191505060405180910390f35b61045f6004803603608081101561038457600080fd5b81019080803573ffffffffffffffffffffffffffffffffffffffff169060200190929190803590602001906401000000008111156103c157600080fd5b8201836020820111156103d357600080fd5b803590602001918460018302840111640100000000831117156103f557600080fd5b91908080601f016020809104026020016040519081016040528093929190818152602001838380828437600081840152601f19601f820116905080830192505050505050509192919290803515159060200190929190803515159060200190929190505050610b91565b6040518082815260200191505060405180910390f35b6104ab6004803603604081101561048b57600080fd5b81019080803590602001909291908035906020019092919050505061100d565b604051808215151515815260200191505060405180910390f35b6104f1600480360360208110156104db57600080fd5b810190808035906020019092919050505061103c565b6040518082815260200191505060405180910390f35b6105336004803603602081101561051d57600080fd5b8101908080359060200190929190505050611054565b6040518080602001828103825283818151815260200191508051906020019080838360005b83811015610573578082015181840152602081019050610558565b50505050905090810190601f1680156105a05780820380516001836020036101000a031916815260200191505b509250505060405180910390f35b6105da600480360360208110156105c457600080fd5b8101908080359060200190929190505050611104565b604051808215151515815260200191505060405180910390f35b6106206004803603602081101561060a57600080fd5b8101908080359060200190929190505050611732565b6040518080602001828103825283818151815260200191508051906020019080838360005b83811015610660578082015181840152602081019050610645565b50505050905090810190601f16801561068d5780820380516001836020036101000a031916815260200191505b509250505060405180910390f35b6106c7600480360360208110156106b157600080fd5b81019080803590602001909291905050506117e2565b604051808273ffffffffffffffffffffffffffffffffffffffff1673ffffffffffffffffffffffffffffffffffffffff16815260200191505060405180910390f35b6107556004803603604081101561071f57600080fd5b81019080803573ffffffffffffffffffffffffffffffffffffffff16906020019092919080359060200190929190505050611815565b604051808215151515815260200191505060405180910390f35b6107d16004803603604081101561078557600080fd5b81019080803573ffffffffffffffffffffffffffffffffffffffff169060200190929190803573ffffffffffffffffffffffffffffffffffffffff16906020019092919050505061187d565b6040518082815260200191505060405180910390f35b6107ef6118a2565b6040518082815260200191505060405180910390f35b61080d6118a8565b604051808273ffffffffffffffffffffffffffffffffffffffff1673ffffffffffffffffffffffffffffffffffffffff16815260200191505060405180910390f35b60018054600181600116156101000203166002900480601f0160208091040260200160405190810160405280929190818152602001828054600181600116156101000203166002900480156108e55780601f106108ba576101008083540402835291602001916108e5565b820191906000526020600020905b8154815290600101906020018083116108c857829003601f168201915b505050505081565b60025481565b6000601060008473ffffffffffffffffffffffffffffffffffffffff1673ffffffffffffffffffffffffffffffffffffffff16815260200190815260200160002060003373ffffffffffffffffffffffffffffffffffffffff1673ffffffffffffffffffffffffffffffffffffffff16815260200190815260200160002060009054906101000a900460ff166109d4576040517f08c379a0000000000000000000000000000000000000000000000000000000008152600401808060200182810382526028815260200180611afc6028913960400191505060405180910390fd5b600e60008473ffffffffffffffffffffffffffffffffffffffff1673ffffffffffffffffffffffffffffffffffffffff168152602001908152602001600020600083815260200190815260200160002060009054906101000a900460ff16905092915050565b60088054600181600116156101000203166002900480601f016020809104026020016040519081016040528092919081815260200182805460018160011615610100020316600290048015610ad05780601f10610aa557610100808354040283529160200191610ad0565b820191906000526020600020905b815481529060010190602001808311610ab357829003601f168201915b505050505081565b60126020528060005260406000206000915090505481565b60006001601060008573ffffffffffffffffffffffffffffffffffffffff1673ffffffffffffffffffffffffffffffffffffffff16815260200190815260200160002060008473ffffffffffffffffffffffffffffffffffffffff1673ffffffffffffffffffffffffffffffffffffffff16815260200190815260200160002060006101000a81548160ff0219169083151502179055506001905092915050565b60008060009054906101000a900473ffffffffffffffffffffffffffffffffffffffff1673ffffffffffffffffffffffffffffffffffffffff163373ffffffffffffffffffffffffffffffffffffffff1614610c55576040517f08c379a00000000000000000000000000000000000000000000000000000000081526004018080602001828103825260208152602001807f4e6f7420746865206f776e6572206f6620736f7572636520636f6e747261637481525060200191505060405180910390fd5b8280610c5e5750815b610cd0576040517f08c379a000000000000000000000000000000000000000000000000000000000815260040180806020018281038252601f8152602001807f43616e6e6f7420626520626f746820657263323020616e64206572633732310081525060200191505060405180910390fd5b83600b600060025481526020019081526020016000209080519060200190610cf99291906119cf565b50600254600960003373ffffffffffffffffffffffffffffffffffffffff1673ffffffffffffffffffffffffffffffffffffffff16815260200190815260200160002060008773ffffffffffffffffffffffffffffffffffffffff1673ffffffffffffffffffffffffffffffffffffffff1681526020019081526020016000208190555084600a6000600254815260200190815260200160002060006101000a81548173ffffffffffffffffffffffffffffffffffffffff021916908373ffffffffffffffffffffffffffffffffffffffff16021790555082600d600060025481526020019081526020016000206000600354815260200190815260200160002060006101000a81548160ff02191690831515021790555081600d600060025481526020019081526020016000206000600454815260200190815260200160002060006101000a81548160ff0219169083151502179055508115610fec5760008590508073ffffffffffffffffffffffffffffffffffffffff166306fdde036040518163ffffffff1660e01b8152600401600060405180830381600087803b158015610ea457600080fd5b505af1158015610eb8573d6000803e3d6000fd5b505050506040513d6000823e3d601f19601f820116820180604052506020811015610ee257600080fd5b8101908080516040519392919084640100000000821115610f0257600080fd5b83820191506020820185811115610f1857600080fd5b8251866001820283011164010000000082111715610f3557600080fd5b8083526020830192505050908051906020019080838360005b83811015610f69578082015181840152602081019050610f4e565b50505050905090810190601f168015610f965780820380516001836020036101000a031916815260200191505b5060405250505060079080519060200190610fb29291906119cf565b506007600c600060025481526020019081526020016000209080546001816001161561010002031660029004610fe9929190611a4f565b50505b60016002600082825401925050819055506001600254039050949350505050565b600d6020528160005260406000206020528060005260406000206000915091509054906101000a900460ff1681565b60116020528060005260406000206000915090505481565b600c6020528060005260406000206000915090508054600181600116156101000203166002900480601f0160208091040260200160405190810160405280929190818152602001828054600181600116156101000203166002900480156110fc5780601f106110d1576101008083540402835291602001916110fc565b820191906000526020600020905b8154815290600101906020018083116110df57829003601f168201915b505050505081565b6000600d60008381526020019081526020016000206000600354815260200190815260200160002060009054906101000a900460ff1615611330576000600a600084815260200190815260200160002060009054906101000a900473ffffffffffffffffffffffffffffffffffffffff1690508073ffffffffffffffffffffffffffffffffffffffff166370a08231336040518263ffffffff1660e01b8152600401808273ffffffffffffffffffffffffffffffffffffffff1673ffffffffffffffffffffffffffffffffffffffff168152602001915050602060405180830381600087803b1580156111f657600080fd5b505af115801561120a573d6000803e3d6000fd5b505050506040513d602081101561122057600080fd5b81019080805190602001909291905050506006819055506005546006541115611326576001600e60003373ffffffffffffffffffffffffffffffffffffffff1673ffffffffffffffffffffffffffffffffffffffff168152602001908152602001600020600085815260200190815260200160002060006101000a81548160ff021916908315150217905550600160116000858152602001908152602001600020600082825401925050819055506001601260003373ffffffffffffffffffffffffffffffffffffffff1673ffffffffffffffffffffffffffffffffffffffff16815260200190815260200160002060008282540192505081905550600191505061172d565b600091505061172d565b600d60008381526020019081526020016000206000600454815260200190815260200160002060009054906101000a900460ff1615611728576000600a600084815260200190815260200160002060009054906101000a900473ffffffffffffffffffffffffffffffffffffffff1690508073ffffffffffffffffffffffffffffffffffffffff166306fdde036040518163ffffffff1660e01b8152600401600060405180830381600087803b1580156113e957600080fd5b505af11580156113fd573d6000803e3d6000fd5b505050506040513d6000823e3d601f19601f82011682018060405250602081101561142757600080fd5b810190808051604051939291908464010000000082111561144757600080fd5b8382019150602082018581111561145d57600080fd5b825186600182028301116401000000008211171561147a57600080fd5b8083526020830192505050908051906020019080838360005b838110156114ae578082015181840152602081019050611493565b50505050905090810190601f1680156114db5780820380516001836020036101000a031916815260200191505b50604052505050600890805190602001906114f79291906119cf565b5061163660088054600181600116156101000203166002900480601f0160208091040260200160405190810160405280929190818152602001828054600181600116156101000203166002900480156115915780601f1061156657610100808354040283529160200191611591565b820191906000526020600020905b81548152906001019060200180831161157457829003601f168201915b505050505060078054600181600116156101000203166002900480601f01602080910402602001604051908101604052809291908181526020018280546001816001161561010002031660029004801561162c5780601f106116015761010080835404028352916020019161162c565b820191906000526020600020905b81548152906001019060200180831161160f57829003601f168201915b50505050506118cd565b1561171e576001600e60003373ffffffffffffffffffffffffffffffffffffffff1673ffffffffffffffffffffffffffffffffffffffff168152602001908152602001600020600085815260200190815260200160002060006101000a81548160ff021916908315150217905550600160116000858152602001908152602001600020600082825401925050819055506001601260003373ffffffffffffffffffffffffffffffffffffffff1673ffffffffffffffffffffffffffffffffffffffff16815260200190815260200160002060008282540192505081905550600191505061172d565b600191505061172d565b600090505b919050565b600b6020528060005260406000206000915090508054600181600116156101000203166002900480601f0160208091040260200160405190810160405280929190818152602001828054600181600116156101000203166002900480156117da5780601f106117af576101008083540402835291602001916117da565b820191906000526020600020905b8154815290600101906020018083116117bd57829003601f168201915b505050505081565b600a6020528060005260406000206000915054906101000a900473ffffffffffffffffffffffffffffffffffffffff1681565b6000600f60008473ffffffffffffffffffffffffffffffffffffffff1673ffffffffffffffffffffffffffffffffffffffff168152602001908152602001600020600083815260200190815260200160002060009054906101000a900460ff16905092915050565b6009602052816000526040600020602052806000526040600020600091509150505481565b60065481565b6000809054906101000a900473ffffffffffffffffffffffffffffffffffffffff1681565b600081518351146118e157600090506119c9565b816040516020018082805190602001908083835b6020831061191857805182526020820191506020810190506020830392506118f5565b6001836020036101000a03801982511681845116808217855250505050505090500191505060405160208183030381529060405280519060200120836040516020018082805190602001908083835b6020831061198a5780518252602082019150602081019050602083039250611967565b6001836020036101000a038019825116818451168082178552505050505050905001915050604051602081830303815290604052805190602001201490505b92915050565b828054600181600116156101000203166002900490600052602060002090601f016020900481019282601f10611a1057805160ff1916838001178555611a3e565b82800160010185558215611a3e579182015b82811115611a3d578251825591602001919060010190611a22565b5b509050611a4b9190611ad6565b5090565b828054600181600116156101000203166002900490600052602060002090601f016020900481019282601f10611a885780548555611ac5565b82800160010185558215611ac557600052602060002091601f016020900482015b82811115611ac4578254825591600101919060010190611aa9565b5b509050611ad29190611ad6565b5090565b611af891905b80821115611af4576000816000905550600101611adc565b5090565b9056fe4d73672e53656e64657220646f6573206e6f7420686176652076696577207065726d697373696f6ea26469706673582212205948d501b059662a560206e9124793263fa7f126ba5899253002b86e825ec98564736f6c63430006000033",
  "source": "/*\nTitle: RAD: Reputation and Achievement DAPP\nDescription: Posters can create, 'post', Microbounties which are then claimed by Claimants.\n             The microbounty rewards used in this demo are strings which are mapped to the claimant's address.\n             Posters have analytics to see how many users have claimed a microbounty.\n             We call them microbounties because the criteria is easy to meet (micro), \n             and they drive user engagement which is beneficial to the poster (bounty).\n\nAuthors: Brock Smedley and Alexander Angel\n.*/\n\n\npragma solidity ^0.6.0;\n\n\nabstract contract RadInterface {\n    /** \n     * @notice `msg.sender` Posts a bounty reward 'reward' which is linked to a contract address.\n     * @param _source The contract address which the bounty is linked to.\n     * @param _reward The bounty reward - just a string. Could be a hash, or a private key to a wallet.\n     * @param _erc20 A bool to check if _source has an erc20 standard interface.\n     * @param _erc721 A bool to check _source has an erc721 standard interface.\n     * @return id The unique identifier of the posted bounty.\n     */\n    function postReward(address _source, string memory _reward, bool _erc20, bool _erc721) public virtual returns (uint256 id);\n\n    /** \n     * @dev `msg.sender` Claims a bounty reward ('_identification).\n     * @param _identification The bounty nonce when it was posted.\n     * @return success If the transaction was successful or reverted.\n     */\n    function claimReward(uint256 _identification) public virtual returns (bool success);\n}\n\n\nabstract contract Erc20Token {\n    /**\n     * @dev Returns the amount of tokens owned by `account`.\n     */\n    function balanceOf(address _owner) virtual external returns(uint256);\n}\n\nabstract contract Erc721Token {\n    /**\n     * @dev Returns the name metadata of the token.\n     */\n    function name() virtual external returns(string memory);\n}\n\n\n/**\n * @dev Main contract which handles posting bounties, \n * claiming bounties, and storing mappings of \n * claims, address, and source addresses.\n */\ncontract Rad is RadInterface {\n\n    /**\n     * @dev Emitted when a bounty with a higher nonce is posted\n     * by a source contract owner ('_creator') \n     * that is linked to a ('_source') contract address.\n     */\n    event PostReward(address indexed _creator, address indexed _source, string _metadata);\n    \n    \n    /**\n     * @dev Emitted when the ownership of a bounty ('_identification')\n     *  linked to ('_source') is given to a claimant ('_claimant').\n     */\n    event ClaimReward(address indexed _claimant, address indexed _source, uint256 _identification);\n    \n    /**\n     * @dev Emitted when a claimant ('_approver') grants permission to\n     * an approved party ('_approved') to view the claimant's claims.\n     */\n    event Approve(address indexed _approver, address indexed _approved);\n\n\n    address public admin;\n\n    string public reward;\n    uint256 public rewardNonce;\n\n    uint256 private erc20Id;\n    uint256 private erc721Id;\n\n    uint256 private balanceThreshold;\n    uint256 public testBalance;\n\n    string private expectedName;\n    string public actualName;\n\n\n    // Maps Posters and Source contracts to an ID\n    mapping (address => mapping(address => uint256)) public rewardId; // Address of poster -> address of source contract -> ID of reward\n    \n    // Maps IDs to Source Addresses\n    mapping (uint256 => address) public rewardSourceAddress;\n\n    // Maps IDs to Reward String\n    mapping (uint256 => string) public rewardString;\n\n    // Maps IDs to NFT Name metadata\n    mapping (uint256 => string) public nftName;\n\n    // Maps erc20 and erc721 standard checks to an ID\n    mapping (uint256 => mapping (uint256 => bool)) public interfaceType;\n\n    // Maps Claimant Address to IDs of Rewards and returns True if claimed\n    mapping (address => mapping(uint256 => bool)) private _catalogue;\n\n    // Maps Poster Addresses to IDs of Rewards and returns True if posted\n    mapping (address => mapping(uint256 => bool)) private _posters;\n\n    // Maps Addresses of claimants to addresses of users who can view their rewards\n    mapping (address => mapping(address => bool)) private _allowances;\n\n    // Maps a nonce value for the amount of times a reward is claimed\n    mapping (uint256 => uint256) public _timesClaimed;\n\n    // Maps a nonce value for the amount of rewards an address has claimed\n    mapping (address => uint256) public _totalClaims;\n\n\n    /**\n     * @dev Sets the values for `admin`, `rewardNonce`, an 'Id' for the \n     * erc20 and erc721 checks, as well as a balance threshold for\n     * erc20 checks.\n     * These values are immutable: they can only be set once during\n     * construction.\n     */\n    constructor() public {\n        admin = msg.sender;\n        rewardNonce = 0;\n        erc20Id = 1;\n        erc721Id = 2;\n        balanceThreshold = 10**17;\n    }\n\n\n    /**\n     * @dev Utility function that compares strings ('a') and ('b')\n     * and returns whether they have equality or not.\n     */\n    function hashCompareWithLengthCheck(string memory a, string memory b) internal pure returns (bool) {\n        if(bytes(a).length != bytes(b).length) {\n            return false;\n        } else {\n            return (keccak256(abi.encodePacked(a))) == (keccak256(abi.encodePacked(b)));\n        }\n    }\n\n    /**\n     * @dev Updates the stats of posted and claimed bounties.\n     */\n    function updateAnalytics(address _owner, uint256 _identification) internal returns (bool) {\n        _timesClaimed[_identification] += 1;\n        _totalClaims[_owner] += 1;\n        return true;\n    }\n\n    /** \n     * @dev `msg.sender` Posts a bounty reward 'reward' which is linked to a contract address.\n     * @param _source The contract address which the bounty is linked to.\n     * @param _reward The bounty reward - just a string. Could be a hash, or a private key to a wallet.\n     * @param _erc20 A bool to check if _source has an erc20 standard interface.\n     * @param _erc721 A bool to check _source has an erc721 standard interface.\n     * @return id The unique identifier of the posted bounty.\n     */\n    function postReward(address _source, string memory _reward, bool _erc20, bool _erc721) public override returns (uint256 id) {\n        require(msg.sender == admin, 'Not the owner of source contract'); // placeholder for checking owner of source contract\n        require(_erc20 || _erc721, 'Cannot be both erc20 and erc721');\n        \n        rewardString[rewardNonce] = _reward;\n        rewardId[msg.sender][_source] = rewardNonce;\n        rewardSourceAddress[rewardNonce] = _source;\n\n        interfaceType[rewardNonce][erc20Id] = _erc20;\n        interfaceType[rewardNonce][erc721Id] = _erc721;\n        \n        if (_erc721) {\n            Erc721Token erc721 = Erc721Token(_source);\n            expectedName = erc721.name();\n            nftName[rewardNonce] = expectedName;\n        }\n        rewardNonce += 1;\n        return rewardNonce - 1;\n    }\n\n    /** \n     * @dev `msg.sender` Claims a bounty reward ('_identification).\n     * @param _identification The bounty nonce when it was posted.\n     * @return success If the transaction was successful or reverted.\n     */\n    function claimReward(uint256 _identification) public override returns (bool success) {\n        if (interfaceType[_identification][erc20Id]) {\n            Erc20Token erc20 = Erc20Token(rewardSourceAddress[_identification]);\n            testBalance = erc20.balanceOf(msg.sender);\n            if (testBalance > balanceThreshold){\n                _catalogue[msg.sender][_identification] = true;\n                _timesClaimed[_identification] += 1;\n                _totalClaims[msg.sender] += 1;\n                return true;\n            }\n            return false;\n        }\n\n        if (interfaceType[_identification][erc721Id]) {\n            Erc721Token erc721 = Erc721Token(rewardSourceAddress[_identification]);\n            actualName = erc721.name();\n            if (hashCompareWithLengthCheck(actualName, expectedName)) {\n                _catalogue[msg.sender][_identification] = true;\n                _timesClaimed[_identification] += 1;\n                _totalClaims[msg.sender] += 1;\n                return true;\n            }\n            return true;\n        }\n        return false;\n    }\n\n    /**\n     * @dev A claimant ('_approver') grants permission to\n     * an approved party ('_approved') to view the claimant's claims.\n     * @param _claimant Address of record owner.\n     * @param _viewer Address of record viewer.\n     * @return If the function call is successful or reverted.\n     */\n    function approve(address _claimant, address _viewer) public returns (bool) {\n        _allowances[_claimant][_viewer] = true;\n        return true;\n    }\n    \n    /**\n     * @dev A public function to see if a claimant owns a bounty reward.\n     * @param _claimant Address of record owner.\n     * @param _identification Nonce of bounty when posted.\n     * @return If the claimant has claimed the bounty ('_identification').\n     */\n    function isRewardClaimant(address _claimant, uint256 _identification) public view returns (bool) {\n        require(_allowances[_claimant][msg.sender], 'Msg.Sender does not have view permission');\n        return _catalogue[_claimant][_identification];\n    }\n\n    /**\n     * @dev A public function to see if an address is the poster of a bounty.\n     * @param _poster Address of bounty poster.\n     * @param _identification Nonce of bounty when posted.\n     * @return If the address has posted the bounty ('_identification').\n     */\n    function isRewardPoster(address _poster, uint256 _identification) public view returns (bool) {\n        return _posters[_poster][_identification];\n    }\n}",
  "sourcePath": "/Users/brock/Documents/GitHub/arrakis-buidl/contracts/Rad.sol",
  "compiler": {
    "name": "solc",
    "version": "0.6.0+commit.26b70077.Emscripten.clang"
  },
  "schemaVersion": "3.0.23",
  "updatedAt": "2020-02-16T09:07:26.534Z",
  "networkType": "ethereum",
  "devdoc": {
    "details": "Main contract which handles posting bounties,  claiming bounties, and storing mappings of  claims, address, and source addresses.",
    "methods": {
      "approve(address,address)": {
        "details": "A claimant ('_approver') grants permission to an approved party ('_approved') to view the claimant's claims.",
        "params": {
          "_claimant": "Address of record owner.",
          "_viewer": "Address of record viewer."
        },
        "returns": {
          "_0": "If the function call is successful or reverted."
        }
      },
      "claimReward(uint256)": {
        "details": "`msg.sender` Claims a bounty reward ('_identification).",
        "params": {
          "_identification": "The bounty nonce when it was posted."
        },
        "returns": {
          "success": "If the transaction was successful or reverted."
        }
      },
      "constructor": {
        "details": "Sets the values for `admin`, `rewardNonce`, an 'Id' for the  erc20 and erc721 checks, as well as a balance threshold for erc20 checks. These values are immutable: they can only be set once during construction."
      },
      "isRewardClaimant(address,uint256)": {
        "details": "A public function to see if a claimant owns a bounty reward.",
        "params": {
          "_claimant": "Address of record owner.",
          "_identification": "Nonce of bounty when posted."
        },
        "returns": {
          "_0": "If the claimant has claimed the bounty ('_identification')."
        }
      },
      "isRewardPoster(address,uint256)": {
        "details": "A public function to see if an address is the poster of a bounty.",
        "params": {
          "_identification": "Nonce of bounty when posted.",
          "_poster": "Address of bounty poster."
        },
        "returns": {
          "_0": "If the address has posted the bounty ('_identification')."
        }
      },
      "postReward(address,string,bool,bool)": {
        "details": "`msg.sender` Posts a bounty reward 'reward' which is linked to a contract address.",
        "params": {
          "_erc20": "A bool to check if _source has an erc20 standard interface.",
          "_erc721": "A bool to check _source has an erc721 standard interface.",
          "_reward": "The bounty reward - just a string. Could be a hash, or a private key to a wallet.",
          "_source": "The contract address which the bounty is linked to."
        },
        "returns": {
          "id": "The unique identifier of the posted bounty."
        }
      }
    }
  },
  "userdoc": {
    "methods": {}
  }
}