{
  "contractName": "Rad",
  "abi": [
    {
      "inputs": [],
      "stateMutability": "nonpayable",
      "type": "constructor"
    },
    {
      "anonymous": false,
      "inputs": [
        {
          "indexed": true,
          "internalType": "address",
          "name": "_approver",
          "type": "address"
        },
        {
          "indexed": true,
          "internalType": "address",
          "name": "_approved",
          "type": "address"
        }
      ],
      "name": "Approve",
      "type": "event"
    },
    {
      "anonymous": false,
      "inputs": [
        {
          "indexed": true,
          "internalType": "address",
          "name": "_owner",
          "type": "address"
        },
        {
          "indexed": true,
          "internalType": "address",
          "name": "_source",
          "type": "address"
        }
      ],
      "name": "ClaimReward",
      "type": "event"
    },
    {
      "anonymous": false,
      "inputs": [
        {
          "indexed": true,
          "internalType": "address",
          "name": "_creator",
          "type": "address"
        },
        {
          "indexed": true,
          "internalType": "address",
          "name": "_source",
          "type": "address"
        }
      ],
      "name": "ExpireReward",
      "type": "event"
    },
    {
      "anonymous": false,
      "inputs": [
        {
          "indexed": true,
          "internalType": "address",
          "name": "_creator",
          "type": "address"
        },
        {
          "indexed": true,
          "internalType": "address",
          "name": "_source",
          "type": "address"
        },
        {
          "indexed": false,
          "internalType": "string",
          "name": "_metadata",
          "type": "string"
        }
      ],
      "name": "NewReward",
      "type": "event"
    },
    {
      "inputs": [],
      "name": "admin",
      "outputs": [
        {
          "internalType": "address",
          "name": "",
          "type": "address"
        }
      ],
      "stateMutability": "view",
      "type": "function",
      "constant": true
    },
    {
      "inputs": [
        {
          "internalType": "uint256",
          "name": "",
          "type": "uint256"
        },
        {
          "internalType": "uint256",
          "name": "",
          "type": "uint256"
        }
      ],
      "name": "interfaceType",
      "outputs": [
        {
          "internalType": "bool",
          "name": "",
          "type": "bool"
        }
      ],
      "stateMutability": "view",
      "type": "function",
      "constant": true
    },
    {
      "inputs": [],
      "name": "reward",
      "outputs": [
        {
          "internalType": "string",
          "name": "",
          "type": "string"
        }
      ],
      "stateMutability": "view",
      "type": "function",
      "constant": true
    },
    {
      "inputs": [
        {
          "internalType": "uint256",
          "name": "",
          "type": "uint256"
        }
      ],
      "name": "rewardId",
      "outputs": [
        {
          "internalType": "string",
          "name": "",
          "type": "string"
        }
      ],
      "stateMutability": "view",
      "type": "function",
      "constant": true
    },
    {
      "inputs": [],
      "name": "rewardNonce",
      "outputs": [
        {
          "internalType": "uint256",
          "name": "",
          "type": "uint256"
        }
      ],
      "stateMutability": "view",
      "type": "function",
      "constant": true
    },
    {
      "inputs": [
        {
          "internalType": "address",
          "name": "",
          "type": "address"
        }
      ],
      "name": "rewards",
      "outputs": [
        {
          "internalType": "string",
          "name": "",
          "type": "string"
        }
      ],
      "stateMutability": "view",
      "type": "function",
      "constant": true
    },
    {
      "inputs": [
        {
          "internalType": "address",
          "name": "_source",
          "type": "address"
        },
        {
          "internalType": "string",
          "name": "_reward",
          "type": "string"
        },
        {
          "internalType": "bool",
          "name": "_erc20",
          "type": "bool"
        },
        {
          "internalType": "bool",
          "name": "_erc721",
          "type": "bool"
        }
      ],
      "name": "postReward",
      "outputs": [
        {
          "internalType": "bool",
          "name": "success",
          "type": "bool"
        }
      ],
      "stateMutability": "nonpayable",
      "type": "function"
    },
    {
      "inputs": [
        {
          "internalType": "uint256",
          "name": "_identification",
          "type": "uint256"
        }
      ],
      "name": "claimReward",
      "outputs": [
        {
          "internalType": "bool",
          "name": "success",
          "type": "bool"
        }
      ],
      "stateMutability": "view",
      "type": "function",
      "constant": true
    }
  ],
  "bytecode": "0x608060405234801561001057600080fd5b50336000806101000a81548173ffffffffffffffffffffffffffffffffffffffff021916908373ffffffffffffffffffffffffffffffffffffffff160217905550600060028190555060016003819055506002600481905550610c07806100786000396000f3fe608060405234801561001057600080fd5b50600436106100885760003560e01c8063804e7ab31161005b578063804e7ab31461029257806380aaecfa1461039d578063ae169a50146103ed578063f851a4401461043357610088565b80630700037d1461008d578063228cb7331461014a57806334866bbc146101cd57806345239cce14610274575b600080fd5b6100cf600480360360208110156100a357600080fd5b81019080803573ffffffffffffffffffffffffffffffffffffffff16906020019092919050505061047d565b6040518080602001828103825283818151815260200191508051906020019080838360005b8381101561010f5780820151818401526020810190506100f4565b50505050905090810190601f16801561013c5780820380516001836020036101000a031916815260200191505b509250505060405180910390f35b61015261052d565b6040518080602001828103825283818151815260200191508051906020019080838360005b83811015610192578082015181840152602081019050610177565b50505050905090810190601f1680156101bf5780820380516001836020036101000a031916815260200191505b509250505060405180910390f35b6101f9600480360360208110156101e357600080fd5b81019080803590602001909291905050506105cb565b6040518080602001828103825283818151815260200191508051906020019080838360005b8381101561023957808201518184015260208101905061021e565b50505050905090810190601f1680156102665780820380516001836020036101000a031916815260200191505b509250505060405180910390f35b61027c61067b565b6040518082815260200191505060405180910390f35b610383600480360360808110156102a857600080fd5b81019080803573ffffffffffffffffffffffffffffffffffffffff169060200190929190803590602001906401000000008111156102e557600080fd5b8201836020820111156102f757600080fd5b8035906020019184600183028401116401000000008311171561031957600080fd5b91908080601f016020809104026020016040519081016040528093929190818152602001838380828437600081840152601f19601f820116905080830192505050505050509192919290803515159060200190929190803515159060200190929190505050610681565b604051808215151515815260200191505060405180910390f35b6103d3600480360360408110156103b357600080fd5b8101908080359060200190929190803590602001909291905050506108ff565b604051808215151515815260200191505060405180910390f35b6104196004803603602081101561040357600080fd5b810190808035906020019092919050505061092e565b604051808215151515815260200191505060405180910390f35b61043b610a80565b604051808273ffffffffffffffffffffffffffffffffffffffff1673ffffffffffffffffffffffffffffffffffffffff16815260200191505060405180910390f35b60066020528060005260406000206000915090508054600181600116156101000203166002900480601f0160208091040260200160405190810160405280929190818152602001828054600181600116156101000203166002900480156105255780601f106104fa57610100808354040283529160200191610525565b820191906000526020600020905b81548152906001019060200180831161050857829003601f168201915b505050505081565b60018054600181600116156101000203166002900480601f0160208091040260200160405190810160405280929190818152602001828054600181600116156101000203166002900480156105c35780601f10610598576101008083540402835291602001916105c3565b820191906000526020600020905b8154815290600101906020018083116105a657829003601f168201915b505050505081565b60076020528060005260406000206000915090508054600181600116156101000203166002900480601f0160208091040260200160405190810160405280929190818152602001828054600181600116156101000203166002900480156106735780601f1061064857610100808354040283529160200191610673565b820191906000526020600020905b81548152906001019060200180831161065657829003601f168201915b505050505081565b60025481565b60008060009054906101000a900473ffffffffffffffffffffffffffffffffffffffff1673ffffffffffffffffffffffffffffffffffffffff163373ffffffffffffffffffffffffffffffffffffffff1614610745576040517f08c379a00000000000000000000000000000000000000000000000000000000081526004018080602001828103825260208152602001807f4e6f7420746865206f776e6572206f6620736f7572636520636f6e747261637481525060200191505060405180910390fd5b828061074e5750815b6107c0576040517f08c379a000000000000000000000000000000000000000000000000000000000815260040180806020018281038252601f8152602001807f43616e6e6f7420626520626f746820657263323020616e64206572633732310081525060200191505060405180910390fd5b83600190805190602001906107d6929190610aa5565b5083600660008773ffffffffffffffffffffffffffffffffffffffff1673ffffffffffffffffffffffffffffffffffffffff168152602001908152602001600020908051906020019061082a929190610aa5565b5060016007600060025481526020019081526020016000209080546001816001161561010002031660029004610861929190610b25565b50826008600060025481526020019081526020016000206000600354815260200190815260200160002060006101000a81548160ff021916908315150217905550816008600060025481526020019081526020016000206000600454815260200190815260200160002060006101000a81548160ff021916908315150217905550600160026000828254019250508190555060019050949350505050565b60086020528160005260406000206020528060005260406000206000915091509054906101000a900460ff1681565b60008060009054906101000a900473ffffffffffffffffffffffffffffffffffffffff1673ffffffffffffffffffffffffffffffffffffffff163373ffffffffffffffffffffffffffffffffffffffff16146109f2576040517f08c379a00000000000000000000000000000000000000000000000000000000081526004018080602001828103825260208152602001807f4e6f7420746865206f776e6572206f6620736f7572636520636f6e747261637481525060200191505060405180910390fd5b600860008381526020019081526020016000206000600354815260200190815260200160002060009054906101000a900460ff1615610a345760019050610a7b565b600860008381526020019081526020016000206000600454815260200190815260200160002060009054906101000a900460ff1615610a765760019050610a7b565b600190505b919050565b6000809054906101000a900473ffffffffffffffffffffffffffffffffffffffff1681565b828054600181600116156101000203166002900490600052602060002090601f016020900481019282601f10610ae657805160ff1916838001178555610b14565b82800160010185558215610b14579182015b82811115610b13578251825591602001919060010190610af8565b5b509050610b219190610bac565b5090565b828054600181600116156101000203166002900490600052602060002090601f016020900481019282601f10610b5e5780548555610b9b565b82800160010185558215610b9b57600052602060002091601f016020900482015b82811115610b9a578254825591600101919060010190610b7f565b5b509050610ba89190610bac565b5090565b610bce91905b80821115610bca576000816000905550600101610bb2565b5090565b9056fea2646970667358221220c19e565de3065fda8a44be6983261c66425c93662323770504bb4550bdbdc0bb64736f6c63430006000033",
  "source": "/*\nTitle: Reputation and Achievement DApp, 'RAD'\nDescription: 'Achievement' creators can generate achievements for users to earn\n             by interacting with whitelisted smart contracts.\n\nAuthors: Brock Smedley and Alexander Angel\n.*/\n\n\npragma solidity ^0.6.0;\n\nabstract contract RadInterface {\n\n    /// @notice `msg.sender` Generates a reward 'reward' to grant address 'source'.\n    /// @param _source The address of the achievement owner\n    /// @param _reward A string \n    /// @param _erc20 A bool to check for erc20 interface\n    /// @param _erc721 A bool to check for erc721 interface\n    /// @return success Whether the post was successful or not\n    function postReward(address _source, string memory _reward, bool _erc20, bool _erc721) public virtual returns (bool success);\n\n}\n\ncontract Rad is RadInterface {\n    /*\n    Events:\n        Create Reward, Claimed Reward, Expire Reward claim period, Approve reward view\n    Public functions:\n\n    Functions:\n        generate reward: address smartcontract, \n\n    */\n\n    event NewReward(address indexed _creator, address indexed _source, string _metadata);\n    event ClaimReward(address indexed _owner, address indexed _source);\n    event ExpireReward(address indexed _creator, address indexed _source);\n    event Approve(address indexed _approver, address indexed _approved);\n\n    address public admin;\n    string public reward;\n    uint256 public rewardNonce;\n    uint256 private erc20Id;\n    uint256 private erc721Id;\n    uint256 private typeId;\n\n    mapping (address => string) public rewards;\n    mapping (uint256 => string) public rewardId;\n    mapping (uint256 => mapping (uint256 => bool)) public interfaceType;\n\n    constructor() public {\n        admin = msg.sender;\n        rewardNonce = 0;\n        erc20Id = 1;\n        erc721Id = 2;\n    }\n\n\n    function postReward(address _source, string memory _reward, bool _erc20, bool _erc721) public override returns (bool success) {\n        require(msg.sender == admin, 'Not the owner of source contract'); // placeholder for checking owner of source contract\n        require(_erc20 || _erc721, 'Cannot be both erc20 and erc721');\n        \n        reward = _reward;\n        rewards[_source] = _reward;\n        rewardId[rewardNonce] = reward;\n\n        interfaceType[rewardNonce][erc20Id] = _erc20;\n        interfaceType[rewardNonce][erc721Id] = _erc721;\n        \n        rewardNonce += 1;\n        return true;\n    }\n\n    function claimReward(uint256 _identification) public view returns (bool success) {\n        require(msg.sender == admin, 'Not the owner of source contract'); // placeholder for checking owner of source contract\n        \n        if (interfaceType[_identification][erc20Id]) {\n            return true;\n        }\n\n        if (interfaceType[_identification][erc721Id]) {\n            return true;\n        }\n        \n        return true;\n    }\n    \n}",
  "sourcePath": "/Users/brock/Documents/GitHub/arrakis-buidl/contracts/Rad.sol",
  "compiler": {
    "name": "solc",
    "version": "0.6.0+commit.26b70077.Emscripten.clang"
  },
  "schemaVersion": "3.0.23",
  "updatedAt": "2020-02-15T23:43:15.299Z",
  "networkType": "ethereum",
  "devdoc": {
    "methods": {}
  },
  "userdoc": {
    "methods": {}
  }
}