{
  "contractName": "Rad",
  "abi": [
    {
      "inputs": [],
      "stateMutability": "nonpayable",
      "type": "constructor"
    },
    {
      "anonymous": false,
      "inputs": [
        {
          "indexed": true,
          "internalType": "address",
          "name": "_approver",
          "type": "address"
        },
        {
          "indexed": true,
          "internalType": "address",
          "name": "_approved",
          "type": "address"
        }
      ],
      "name": "Approve",
      "type": "event"
    },
    {
      "anonymous": false,
      "inputs": [
        {
          "indexed": true,
          "internalType": "address",
          "name": "_owner",
          "type": "address"
        },
        {
          "indexed": true,
          "internalType": "address",
          "name": "_source",
          "type": "address"
        }
      ],
      "name": "ClaimReward",
      "type": "event"
    },
    {
      "anonymous": false,
      "inputs": [
        {
          "indexed": true,
          "internalType": "address",
          "name": "_creator",
          "type": "address"
        },
        {
          "indexed": true,
          "internalType": "address",
          "name": "_source",
          "type": "address"
        }
      ],
      "name": "ExpireReward",
      "type": "event"
    },
    {
      "anonymous": false,
      "inputs": [
        {
          "indexed": true,
          "internalType": "address",
          "name": "_creator",
          "type": "address"
        },
        {
          "indexed": true,
          "internalType": "address",
          "name": "_source",
          "type": "address"
        },
        {
          "indexed": false,
          "internalType": "string",
          "name": "_metadata",
          "type": "string"
        }
      ],
      "name": "PostReward",
      "type": "event"
    },
    {
      "inputs": [
        {
          "internalType": "uint256",
          "name": "",
          "type": "uint256"
        }
      ],
      "name": "_timesClaimed",
      "outputs": [
        {
          "internalType": "uint256",
          "name": "",
          "type": "uint256"
        }
      ],
      "stateMutability": "view",
      "type": "function",
      "constant": true
    },
    {
      "inputs": [
        {
          "internalType": "address",
          "name": "",
          "type": "address"
        }
      ],
      "name": "_totalClaims",
      "outputs": [
        {
          "internalType": "uint256",
          "name": "",
          "type": "uint256"
        }
      ],
      "stateMutability": "view",
      "type": "function",
      "constant": true
    },
    {
      "inputs": [],
      "name": "admin",
      "outputs": [
        {
          "internalType": "address",
          "name": "",
          "type": "address"
        }
      ],
      "stateMutability": "view",
      "type": "function",
      "constant": true
    },
    {
      "inputs": [
        {
          "internalType": "uint256",
          "name": "",
          "type": "uint256"
        },
        {
          "internalType": "uint256",
          "name": "",
          "type": "uint256"
        }
      ],
      "name": "interfaceType",
      "outputs": [
        {
          "internalType": "bool",
          "name": "",
          "type": "bool"
        }
      ],
      "stateMutability": "view",
      "type": "function",
      "constant": true
    },
    {
      "inputs": [],
      "name": "reward",
      "outputs": [
        {
          "internalType": "string",
          "name": "",
          "type": "string"
        }
      ],
      "stateMutability": "view",
      "type": "function",
      "constant": true
    },
    {
      "inputs": [
        {
          "internalType": "address",
          "name": "",
          "type": "address"
        },
        {
          "internalType": "address",
          "name": "",
          "type": "address"
        }
      ],
      "name": "rewardId",
      "outputs": [
        {
          "internalType": "uint256",
          "name": "",
          "type": "uint256"
        }
      ],
      "stateMutability": "view",
      "type": "function",
      "constant": true
    },
    {
      "inputs": [],
      "name": "rewardNonce",
      "outputs": [
        {
          "internalType": "uint256",
          "name": "",
          "type": "uint256"
        }
      ],
      "stateMutability": "view",
      "type": "function",
      "constant": true
    },
    {
      "inputs": [
        {
          "internalType": "uint256",
          "name": "",
          "type": "uint256"
        }
      ],
      "name": "rewardSourceAddress",
      "outputs": [
        {
          "internalType": "address",
          "name": "",
          "type": "address"
        }
      ],
      "stateMutability": "view",
      "type": "function",
      "constant": true
    },
    {
      "inputs": [
        {
          "internalType": "uint256",
          "name": "",
          "type": "uint256"
        }
      ],
      "name": "rewardString",
      "outputs": [
        {
          "internalType": "string",
          "name": "",
          "type": "string"
        }
      ],
      "stateMutability": "view",
      "type": "function",
      "constant": true
    },
    {
      "inputs": [],
      "name": "testBalance",
      "outputs": [
        {
          "internalType": "uint256",
          "name": "",
          "type": "uint256"
        }
      ],
      "stateMutability": "view",
      "type": "function",
      "constant": true
    },
    {
      "inputs": [],
      "name": "testName",
      "outputs": [
        {
          "internalType": "string",
          "name": "",
          "type": "string"
        }
      ],
      "stateMutability": "view",
      "type": "function",
      "constant": true
    },
    {
      "inputs": [
        {
          "internalType": "address",
          "name": "_source",
          "type": "address"
        },
        {
          "internalType": "string",
          "name": "_reward",
          "type": "string"
        },
        {
          "internalType": "bool",
          "name": "_erc20",
          "type": "bool"
        },
        {
          "internalType": "bool",
          "name": "_erc721",
          "type": "bool"
        }
      ],
      "name": "postReward",
      "outputs": [
        {
          "internalType": "uint256",
          "name": "id",
          "type": "uint256"
        }
      ],
      "stateMutability": "nonpayable",
      "type": "function"
    },
    {
      "inputs": [
        {
          "internalType": "uint256",
          "name": "_identification",
          "type": "uint256"
        }
      ],
      "name": "claimReward",
      "outputs": [
        {
          "internalType": "bool",
          "name": "success",
          "type": "bool"
        }
      ],
      "stateMutability": "nonpayable",
      "type": "function"
    },
    {
      "inputs": [
        {
          "internalType": "address",
          "name": "_claimant",
          "type": "address"
        },
        {
          "internalType": "address",
          "name": "_viewer",
          "type": "address"
        }
      ],
      "name": "approve",
      "outputs": [
        {
          "internalType": "bool",
          "name": "",
          "type": "bool"
        }
      ],
      "stateMutability": "nonpayable",
      "type": "function"
    },
    {
      "inputs": [
        {
          "internalType": "address",
          "name": "_claimant",
          "type": "address"
        },
        {
          "internalType": "uint256",
          "name": "_identification",
          "type": "uint256"
        }
      ],
      "name": "isRewardClaimant",
      "outputs": [
        {
          "internalType": "bool",
          "name": "",
          "type": "bool"
        }
      ],
      "stateMutability": "view",
      "type": "function",
      "constant": true
    },
    {
      "inputs": [
        {
          "internalType": "address",
          "name": "_poster",
          "type": "address"
        },
        {
          "internalType": "uint256",
          "name": "_identification",
          "type": "uint256"
        }
      ],
      "name": "isRewardPoster",
      "outputs": [
        {
          "internalType": "bool",
          "name": "",
          "type": "bool"
        }
      ],
      "stateMutability": "view",
      "type": "function",
      "constant": true
    }
  ],
  "bytecode": "0x608060405234801561001057600080fd5b50336000806101000a81548173ffffffffffffffffffffffffffffffffffffffff021916908373ffffffffffffffffffffffffffffffffffffffff16021790555060006002819055506001600381905550600260048190555067016345785d8a00006006819055506117d5806100876000396000f3fe608060405234801561001057600080fd5b50600436106101005760003560e01c8063ae169a5011610097578063cda1704711610066578063cda1704714610657578063d01b0db4146106bd578063edede60114610735578063f851a4401461075357610100565b8063ae169a5014610479578063af3de4ae146104bf578063c83de91f14610566578063cc8668de146105d457610100565b80637e5465ba116100d35780637e5465ba14610264578063804e7ab3146102e057806380aaecfa146103e7578063822a32fe1461043757610100565b8063228cb7331461010557806345239cce146101885780634fbd08ca146101a65780637aa6046f1461020c575b600080fd5b61010d61079d565b6040518080602001828103825283818151815260200191508051906020019080838360005b8381101561014d578082015181840152602081019050610132565b50505050905090810190601f16801561017a5780820380516001836020036101000a031916815260200191505b509250505060405180910390f35b61019061083b565b6040518082815260200191505060405180910390f35b6101f2600480360360408110156101bc57600080fd5b81019080803573ffffffffffffffffffffffffffffffffffffffff16906020019092919080359060200190929190505050610841565b604051808215151515815260200191505060405180910390f35b61024e6004803603602081101561022257600080fd5b81019080803573ffffffffffffffffffffffffffffffffffffffff169060200190929190505050610988565b6040518082815260200191505060405180910390f35b6102c66004803603604081101561027a57600080fd5b81019080803573ffffffffffffffffffffffffffffffffffffffff169060200190929190803573ffffffffffffffffffffffffffffffffffffffff1690602001909291905050506109a0565b604051808215151515815260200191505060405180910390f35b6103d1600480360360808110156102f657600080fd5b81019080803573ffffffffffffffffffffffffffffffffffffffff1690602001909291908035906020019064010000000081111561033357600080fd5b82018360208201111561034557600080fd5b8035906020019184600183028401116401000000008311171561036757600080fd5b91908080601f016020809104026020016040519081016040528093929190818152602001838380828437600081840152601f19601f820116905080830192505050505050509192919290803515159060200190929190803515159060200190929190505050610a41565b6040518082815260200191505060405180910390f35b61041d600480360360408110156103fd57600080fd5b810190808035906020019092919080359060200190929190505050610d22565b604051808215151515815260200191505060405180910390f35b6104636004803603602081101561044d57600080fd5b8101908080359060200190929190505050610d51565b6040518082815260200191505060405180910390f35b6104a56004803603602081101561048f57600080fd5b8101908080359060200190929190505050610d69565b604051808215151515815260200191505060405180910390f35b6104eb600480360360208110156104d557600080fd5b8101908080359060200190929190505050611397565b6040518080602001828103825283818151815260200191508051906020019080838360005b8381101561052b578082015181840152602081019050610510565b50505050905090810190601f1680156105585780820380516001836020036101000a031916815260200191505b509250505060405180910390f35b6105926004803603602081101561057c57600080fd5b8101908080359060200190929190505050611447565b604051808273ffffffffffffffffffffffffffffffffffffffff1673ffffffffffffffffffffffffffffffffffffffff16815260200191505060405180910390f35b6105dc61147a565b6040518080602001828103825283818151815260200191508051906020019080838360005b8381101561061c578082015181840152602081019050610601565b50505050905090810190601f1680156106495780820380516001836020036101000a031916815260200191505b509250505060405180910390f35b6106a36004803603604081101561066d57600080fd5b81019080803573ffffffffffffffffffffffffffffffffffffffff16906020019092919080359060200190929190505050611518565b604051808215151515815260200191505060405180910390f35b61071f600480360360408110156106d357600080fd5b81019080803573ffffffffffffffffffffffffffffffffffffffff169060200190929190803573ffffffffffffffffffffffffffffffffffffffff169060200190929190505050611580565b6040518082815260200191505060405180910390f35b61073d6115a5565b6040518082815260200191505060405180910390f35b61075b6115ab565b604051808273ffffffffffffffffffffffffffffffffffffffff1673ffffffffffffffffffffffffffffffffffffffff16815260200191505060405180910390f35b60018054600181600116156101000203166002900480601f0160208091040260200160405190810160405280929190818152602001828054600181600116156101000203166002900480156108335780601f1061080857610100808354040283529160200191610833565b820191906000526020600020905b81548152906001019060200180831161081657829003601f168201915b505050505081565b60025481565b6000601060008473ffffffffffffffffffffffffffffffffffffffff1673ffffffffffffffffffffffffffffffffffffffff16815260200190815260200160002060003373ffffffffffffffffffffffffffffffffffffffff1673ffffffffffffffffffffffffffffffffffffffff16815260200190815260200160002060009054906101000a900460ff16610922576040517f08c379a00000000000000000000000000000000000000000000000000000000081526004018080602001828103825260288152602001806117786028913960400191505060405180910390fd5b600e60008473ffffffffffffffffffffffffffffffffffffffff1673ffffffffffffffffffffffffffffffffffffffff168152602001908152602001600020600083815260200190815260200160002060009054906101000a900460ff16905092915050565b60126020528060005260406000206000915090505481565b60006001601060008573ffffffffffffffffffffffffffffffffffffffff1673ffffffffffffffffffffffffffffffffffffffff16815260200190815260200160002060008473ffffffffffffffffffffffffffffffffffffffff1673ffffffffffffffffffffffffffffffffffffffff16815260200190815260200160002060006101000a81548160ff0219169083151502179055506001905092915050565b60008060009054906101000a900473ffffffffffffffffffffffffffffffffffffffff1673ffffffffffffffffffffffffffffffffffffffff163373ffffffffffffffffffffffffffffffffffffffff1614610b05576040517f08c379a00000000000000000000000000000000000000000000000000000000081526004018080602001828103825260208152602001807f4e6f7420746865206f776e6572206f6620736f7572636520636f6e747261637481525060200191505060405180910390fd5b8280610b0e5750815b610b80576040517f08c379a000000000000000000000000000000000000000000000000000000000815260040180806020018281038252601f8152602001807f43616e6e6f7420626520626f746820657263323020616e64206572633732310081525060200191505060405180910390fd5b83600c600060025481526020019081526020016000209080519060200190610ba99291906116d2565b50600254600a60003373ffffffffffffffffffffffffffffffffffffffff1673ffffffffffffffffffffffffffffffffffffffff16815260200190815260200160002060008773ffffffffffffffffffffffffffffffffffffffff1673ffffffffffffffffffffffffffffffffffffffff1681526020019081526020016000208190555084600b6000600254815260200190815260200160002060006101000a81548173ffffffffffffffffffffffffffffffffffffffff021916908373ffffffffffffffffffffffffffffffffffffffff16021790555082600d600060025481526020019081526020016000206000600354815260200190815260200160002060006101000a81548160ff02191690831515021790555081600d600060025481526020019081526020016000206000600454815260200190815260200160002060006101000a81548160ff02191690831515021790555060016002600082825401925050819055506001600254039050949350505050565b600d6020528160005260406000206020528060005260406000206000915091509054906101000a900460ff1681565b60116020528060005260406000206000915090505481565b6000600d60008381526020019081526020016000206000600354815260200190815260200160002060009054906101000a900460ff1615610f95576000600b600084815260200190815260200160002060009054906101000a900473ffffffffffffffffffffffffffffffffffffffff1690508073ffffffffffffffffffffffffffffffffffffffff166370a08231336040518263ffffffff1660e01b8152600401808273ffffffffffffffffffffffffffffffffffffffff1673ffffffffffffffffffffffffffffffffffffffff168152602001915050602060405180830381600087803b158015610e5b57600080fd5b505af1158015610e6f573d6000803e3d6000fd5b505050506040513d6020811015610e8557600080fd5b81019080805190602001909291905050506007819055506006546007541115610f8b576001600e60003373ffffffffffffffffffffffffffffffffffffffff1673ffffffffffffffffffffffffffffffffffffffff168152602001908152602001600020600085815260200190815260200160002060006101000a81548160ff021916908315150217905550600160116000858152602001908152602001600020600082825401925050819055506001601260003373ffffffffffffffffffffffffffffffffffffffff1673ffffffffffffffffffffffffffffffffffffffff168152602001908152602001600020600082825401925050819055506001915050611392565b6000915050611392565b600d60008381526020019081526020016000206000600454815260200190815260200160002060009054906101000a900460ff161561138d576000600b600084815260200190815260200160002060009054906101000a900473ffffffffffffffffffffffffffffffffffffffff1690508073ffffffffffffffffffffffffffffffffffffffff166306fdde036040518163ffffffff1660e01b8152600401600060405180830381600087803b15801561104e57600080fd5b505af1158015611062573d6000803e3d6000fd5b505050506040513d6000823e3d601f19601f82011682018060405250602081101561108c57600080fd5b81019080805160405193929190846401000000008211156110ac57600080fd5b838201915060208201858111156110c257600080fd5b82518660018202830111640100000000821117156110df57600080fd5b8083526020830192505050908051906020019080838360005b838110156111135780820151818401526020810190506110f8565b50505050905090810190601f1680156111405780820380516001836020036101000a031916815260200191505b506040525050506009908051906020019061115c9291906116d2565b5061129b60098054600181600116156101000203166002900480601f0160208091040260200160405190810160405280929190818152602001828054600181600116156101000203166002900480156111f65780601f106111cb576101008083540402835291602001916111f6565b820191906000526020600020905b8154815290600101906020018083116111d957829003601f168201915b505050505060088054600181600116156101000203166002900480601f0160208091040260200160405190810160405280929190818152602001828054600181600116156101000203166002900480156112915780601f1061126657610100808354040283529160200191611291565b820191906000526020600020905b81548152906001019060200180831161127457829003601f168201915b50505050506115d0565b15611383576001600e60003373ffffffffffffffffffffffffffffffffffffffff1673ffffffffffffffffffffffffffffffffffffffff168152602001908152602001600020600085815260200190815260200160002060006101000a81548160ff021916908315150217905550600160116000858152602001908152602001600020600082825401925050819055506001601260003373ffffffffffffffffffffffffffffffffffffffff1673ffffffffffffffffffffffffffffffffffffffff168152602001908152602001600020600082825401925050819055506001915050611392565b6001915050611392565b600090505b919050565b600c6020528060005260406000206000915090508054600181600116156101000203166002900480601f01602080910402602001604051908101604052809291908181526020018280546001816001161561010002031660029004801561143f5780601f106114145761010080835404028352916020019161143f565b820191906000526020600020905b81548152906001019060200180831161142257829003601f168201915b505050505081565b600b6020528060005260406000206000915054906101000a900473ffffffffffffffffffffffffffffffffffffffff1681565b60098054600181600116156101000203166002900480601f0160208091040260200160405190810160405280929190818152602001828054600181600116156101000203166002900480156115105780601f106114e557610100808354040283529160200191611510565b820191906000526020600020905b8154815290600101906020018083116114f357829003601f168201915b505050505081565b6000600f60008473ffffffffffffffffffffffffffffffffffffffff1673ffffffffffffffffffffffffffffffffffffffff168152602001908152602001600020600083815260200190815260200160002060009054906101000a900460ff16905092915050565b600a602052816000526040600020602052806000526040600020600091509150505481565b60075481565b6000809054906101000a900473ffffffffffffffffffffffffffffffffffffffff1681565b600081518351146115e457600090506116cc565b816040516020018082805190602001908083835b6020831061161b57805182526020820191506020810190506020830392506115f8565b6001836020036101000a03801982511681845116808217855250505050505090500191505060405160208183030381529060405280519060200120836040516020018082805190602001908083835b6020831061168d578051825260208201915060208101905060208303925061166a565b6001836020036101000a038019825116818451168082178552505050505050905001915050604051602081830303815290604052805190602001201490505b92915050565b828054600181600116156101000203166002900490600052602060002090601f016020900481019282601f1061171357805160ff1916838001178555611741565b82800160010185558215611741579182015b82811115611740578251825591602001919060010190611725565b5b50905061174e9190611752565b5090565b61177491905b80821115611770576000816000905550600101611758565b5090565b9056fe4d73672e53656e64657220646f6573206e6f7420686176652076696577207065726d697373696f6ea264697066735822122032522c88a93ddfe49b16eb7c12753cbcdb3c64958da6e81921c043923e5426bd64736f6c63430006000033",
  "source": "/*\nTitle: Reputation and Achievement DApp, 'RAD'\nDescription: 'Achievement' creators can generate achievements for users to earn\n             by interacting with whitelisted smart contracts.\n\nAuthors: Brock Smedley and Alexander Angel\n.*/\n\n\npragma solidity ^0.6.0;\n\nabstract contract RadInterface {\n\n    /// @notice `msg.sender` Generates a reward 'reward' to grant address 'source'.\n    /// @param _source The address of the achievement owner\n    /// @param _reward A string \n    /// @param _erc20 A bool to check for erc20 interface\n    /// @param _erc721 A bool to check for erc721 interface\n    /// @return id The id of the posted reward\n    function postReward(address _source, string memory _reward, bool _erc20, bool _erc721) public virtual returns (uint256 id);\n\n}\n\nabstract contract Erc20Token {\n    function balanceOf(address _owner) virtual external returns(uint256);\n}\n\nabstract contract Erc721Token {\n    function name() virtual external returns(string memory);\n}\n\n\ncontract Rad is RadInterface {\n    /*\n    Events:\n        Create Reward, Claimed Reward, Expire Reward claim period, Approve reward view\n    Public functions:\n\n    Functions:\n        generate reward: address smartcontract, \n\n    */\n\n    event PostReward(address indexed _creator, address indexed _source, string _metadata);\n    event ClaimReward(address indexed _owner, address indexed _source);\n    event ExpireReward(address indexed _creator, address indexed _source);\n    event Approve(address indexed _approver, address indexed _approved);\n\n    address public admin;\n    string public reward;\n    uint256 public rewardNonce;\n    uint256 private erc20Id;\n    uint256 private erc721Id;\n    uint256 private typeId;\n\n    uint256 private balThreshold;\n    uint256 public testBalance;\n    string private expectedName;\n    string public testName;\n\n    // fix poster limit to be more than 1 source contract\n\n    // Maps Posters and Source contracts to an ID\n    mapping (address => mapping(address => uint256)) public rewardId; // Address of poster -> address of source contract -> ID of reward\n    \n    // Maps IDs to Source Addresses\n    mapping (uint256 => address) public rewardSourceAddress;\n\n    // Maps IDs to Reward String\n\n    mapping (uint256 => string) public rewardString;\n\n    // Maps erc20 and erc721 standard checks to an ID\n    mapping (uint256 => mapping (uint256 => bool)) public interfaceType;\n\n    // Maps Claimant Address to IDs of Rewards and returns True if claimed\n    mapping (address => mapping(uint256 => bool)) private _catalogue;\n\n    // Maps Poster Addresses to IDs of Rewards and returns True if posted\n    mapping (address => mapping(uint256 => bool)) private _posters;\n\n    // Maps Addresses of claimants to addresses of users who can view their rewards\n    mapping (address => mapping(address => bool)) private _allowances;\n\n    // Maps a nonce value for the amount of times a reward is claimed\n    mapping (uint256 => uint256) public _timesClaimed;\n\n    // Maps a nonce value for the amount of rewards an address has claimed\n    mapping (address => uint256) public _totalClaims;\n\n\n\n    constructor() public {\n        admin = msg.sender;\n        rewardNonce = 0;\n        erc20Id = 1;\n        erc721Id = 2;\n        balThreshold = 10**17;\n    }\n\n    function hashCompareWithLengthCheck(string memory a, string memory b) internal returns (bool) {\n        if(bytes(a).length != bytes(b).length) {\n            return false;\n        } else {\n            return (keccak256(abi.encodePacked(a))) == (keccak256(abi.encodePacked(b)));\n        }\n    }\n\n    function updateAnalytics(address _owner, uint256 _identification) internal returns (bool) {\n        _timesClaimed[_identification] += 1;\n        _totalClaims[_owner] += 1;\n        return true;\n    }\n\n    function postReward(address _source, string memory _reward, bool _erc20, bool _erc721) public override returns (uint256 id) {\n        require(msg.sender == admin, 'Not the owner of source contract'); // placeholder for checking owner of source contract\n        require(_erc20 || _erc721, 'Cannot be both erc20 and erc721');\n        \n        rewardString[rewardNonce] = _reward;\n        rewardId[msg.sender][_source] = rewardNonce;\n        rewardSourceAddress[rewardNonce] = _source;\n\n        interfaceType[rewardNonce][erc20Id] = _erc20;\n        interfaceType[rewardNonce][erc721Id] = _erc721;\n        \n        rewardNonce += 1;\n        return rewardNonce - 1;\n    }\n\n    function claimReward(uint256 _identification) public returns (bool success) {\n        if (interfaceType[_identification][erc20Id]) {\n            Erc20Token erc20 = Erc20Token(rewardSourceAddress[_identification]);\n            testBalance = erc20.balanceOf(msg.sender);\n            if (testBalance > balThreshold){\n                _catalogue[msg.sender][_identification] = true;\n                _timesClaimed[_identification] += 1;\n                _totalClaims[msg.sender] += 1;\n                return true;\n            }\n            return false;\n        }\n\n        if (interfaceType[_identification][erc721Id]) {\n            Erc721Token erc721 = Erc721Token(rewardSourceAddress[_identification]);\n            testName = erc721.name();\n            if (hashCompareWithLengthCheck(testName, expectedName)) {\n                _catalogue[msg.sender][_identification] = true;\n                _timesClaimed[_identification] += 1;\n                _totalClaims[msg.sender] += 1;\n                return true;\n            }\n            return true;\n        }\n        \n        return false;\n    }\n\n    function approve(address _claimant, address _viewer) public returns (bool) {\n        _allowances[_claimant][_viewer] = true;\n        return true;\n    }\n    \n    function isRewardClaimant(address _claimant, uint256 _identification) public view returns (bool) {\n        require(_allowances[_claimant][msg.sender], 'Msg.Sender does not have view permission');\n        return _catalogue[_claimant][_identification];\n    }\n\n    function isRewardPoster(address _poster, uint256 _identification) public view returns (bool) {\n        return _posters[_poster][_identification];\n    }\n}",
  "sourcePath": "/Users/brock/Documents/GitHub/arrakis-buidl/contracts/Rad.sol",
  "compiler": {
    "name": "solc",
    "version": "0.6.0+commit.26b70077.Emscripten.clang"
  },
  "schemaVersion": "3.0.23",
  "updatedAt": "2020-02-16T03:20:04.477Z",
  "networkType": "ethereum",
  "devdoc": {
    "methods": {}
  },
  "userdoc": {
    "methods": {}
  }
}