{
  "contractName": "Rad",
  "abi": [
    {
      "inputs": [],
      "stateMutability": "nonpayable",
      "type": "constructor"
    },
    {
      "anonymous": false,
      "inputs": [
        {
          "indexed": true,
          "internalType": "address",
          "name": "_approver",
          "type": "address"
        },
        {
          "indexed": true,
          "internalType": "address",
          "name": "_approved",
          "type": "address"
        }
      ],
      "name": "Approve",
      "type": "event"
    },
    {
      "anonymous": false,
      "inputs": [
        {
          "indexed": true,
          "internalType": "address",
          "name": "_owner",
          "type": "address"
        },
        {
          "indexed": true,
          "internalType": "address",
          "name": "_source",
          "type": "address"
        }
      ],
      "name": "ClaimReward",
      "type": "event"
    },
    {
      "anonymous": false,
      "inputs": [
        {
          "indexed": true,
          "internalType": "address",
          "name": "_creator",
          "type": "address"
        },
        {
          "indexed": true,
          "internalType": "address",
          "name": "_source",
          "type": "address"
        }
      ],
      "name": "ExpireReward",
      "type": "event"
    },
    {
      "anonymous": false,
      "inputs": [
        {
          "indexed": true,
          "internalType": "address",
          "name": "_creator",
          "type": "address"
        },
        {
          "indexed": true,
          "internalType": "address",
          "name": "_source",
          "type": "address"
        },
        {
          "indexed": false,
          "internalType": "string",
          "name": "_metadata",
          "type": "string"
        }
      ],
      "name": "PostReward",
      "type": "event"
    },
    {
      "inputs": [],
      "name": "admin",
      "outputs": [
        {
          "internalType": "address",
          "name": "",
          "type": "address"
        }
      ],
      "stateMutability": "view",
      "type": "function",
      "constant": true
    },
    {
      "inputs": [
        {
          "internalType": "address",
          "name": "",
          "type": "address"
        },
        {
          "internalType": "uint256",
          "name": "",
          "type": "uint256"
        }
      ],
      "name": "catalogue",
      "outputs": [
        {
          "internalType": "bool",
          "name": "",
          "type": "bool"
        }
      ],
      "stateMutability": "view",
      "type": "function",
      "constant": true
    },
    {
      "inputs": [
        {
          "internalType": "uint256",
          "name": "",
          "type": "uint256"
        },
        {
          "internalType": "uint256",
          "name": "",
          "type": "uint256"
        }
      ],
      "name": "interfaceType",
      "outputs": [
        {
          "internalType": "bool",
          "name": "",
          "type": "bool"
        }
      ],
      "stateMutability": "view",
      "type": "function",
      "constant": true
    },
    {
      "inputs": [
        {
          "internalType": "address",
          "name": "",
          "type": "address"
        },
        {
          "internalType": "uint256",
          "name": "",
          "type": "uint256"
        }
      ],
      "name": "posters",
      "outputs": [
        {
          "internalType": "bool",
          "name": "",
          "type": "bool"
        }
      ],
      "stateMutability": "view",
      "type": "function",
      "constant": true
    },
    {
      "inputs": [],
      "name": "reward",
      "outputs": [
        {
          "internalType": "string",
          "name": "",
          "type": "string"
        }
      ],
      "stateMutability": "view",
      "type": "function",
      "constant": true
    },
    {
      "inputs": [
        {
          "internalType": "uint256",
          "name": "",
          "type": "uint256"
        }
      ],
      "name": "rewardAddress",
      "outputs": [
        {
          "internalType": "address",
          "name": "",
          "type": "address"
        }
      ],
      "stateMutability": "view",
      "type": "function",
      "constant": true
    },
    {
      "inputs": [
        {
          "internalType": "uint256",
          "name": "",
          "type": "uint256"
        }
      ],
      "name": "rewardId",
      "outputs": [
        {
          "internalType": "string",
          "name": "",
          "type": "string"
        }
      ],
      "stateMutability": "view",
      "type": "function",
      "constant": true
    },
    {
      "inputs": [],
      "name": "rewardNonce",
      "outputs": [
        {
          "internalType": "uint256",
          "name": "",
          "type": "uint256"
        }
      ],
      "stateMutability": "view",
      "type": "function",
      "constant": true
    },
    {
      "inputs": [
        {
          "internalType": "address",
          "name": "",
          "type": "address"
        }
      ],
      "name": "rewards",
      "outputs": [
        {
          "internalType": "string",
          "name": "",
          "type": "string"
        }
      ],
      "stateMutability": "view",
      "type": "function",
      "constant": true
    },
    {
      "inputs": [],
      "name": "testBalance",
      "outputs": [
        {
          "internalType": "uint256",
          "name": "",
          "type": "uint256"
        }
      ],
      "stateMutability": "view",
      "type": "function",
      "constant": true
    },
    {
      "inputs": [
        {
          "internalType": "address",
          "name": "_source",
          "type": "address"
        },
        {
          "internalType": "string",
          "name": "_reward",
          "type": "string"
        },
        {
          "internalType": "bool",
          "name": "_erc20",
          "type": "bool"
        },
        {
          "internalType": "bool",
          "name": "_erc721",
          "type": "bool"
        }
      ],
      "name": "postReward",
      "outputs": [
        {
          "internalType": "bool",
          "name": "success",
          "type": "bool"
        }
      ],
      "stateMutability": "nonpayable",
      "type": "function"
    },
    {
      "inputs": [
        {
          "internalType": "uint256",
          "name": "_identification",
          "type": "uint256"
        }
      ],
      "name": "claimReward",
      "outputs": [
        {
          "internalType": "bool",
          "name": "success",
          "type": "bool"
        }
      ],
      "stateMutability": "nonpayable",
      "type": "function"
    },
    {
      "inputs": [
        {
          "internalType": "address",
          "name": "_address",
          "type": "address"
        },
        {
          "internalType": "uint256",
          "name": "_identification",
          "type": "uint256"
        }
      ],
      "name": "isRewardClaimant",
      "outputs": [
        {
          "internalType": "bool",
          "name": "",
          "type": "bool"
        }
      ],
      "stateMutability": "view",
      "type": "function",
      "constant": true
    },
    {
      "inputs": [
        {
          "internalType": "address",
          "name": "_owner",
          "type": "address"
        },
        {
          "internalType": "uint256",
          "name": "_identification",
          "type": "uint256"
        }
      ],
      "name": "isRewardPoster",
      "outputs": [
        {
          "internalType": "bool",
          "name": "",
          "type": "bool"
        }
      ],
      "stateMutability": "view",
      "type": "function",
      "constant": true
    }
  ],
  "bytecode": "0x608060405234801561001057600080fd5b50336000806101000a81548173ffffffffffffffffffffffffffffffffffffffff021916908373ffffffffffffffffffffffffffffffffffffffff160217905550600060028190555060016003819055506002600481905550670de0b6b3a76400006006819055506110fe806100876000396000f3fe608060405234801561001057600080fd5b50600436106100ea5760003560e01c8063ae169a501161008c578063c99c6bb111610066578063c99c6bb1146105cf578063cda1704714610635578063edede6011461069b578063f851a440146106b9576100ea565b8063ae169a50146104b5578063ae5fb6b2146104fb578063bfcc2a5f14610561576100ea565b806345239cce116100c857806345239cce146102d65780634fbd08ca146102f4578063804e7ab31461035a57806380aaecfa14610465576100ea565b80630700037d146100ef578063228cb733146101ac57806334866bbc1461022f575b600080fd5b6101316004803603602081101561010557600080fd5b81019080803573ffffffffffffffffffffffffffffffffffffffff169060200190929190505050610703565b6040518080602001828103825283818151815260200191508051906020019080838360005b83811015610171578082015181840152602081019050610156565b50505050905090810190601f16801561019e5780820380516001836020036101000a031916815260200191505b509250505060405180910390f35b6101b46107b3565b6040518080602001828103825283818151815260200191508051906020019080838360005b838110156101f45780820151818401526020810190506101d9565b50505050905090810190601f1680156102215780820380516001836020036101000a031916815260200191505b509250505060405180910390f35b61025b6004803603602081101561024557600080fd5b8101908080359060200190929190505050610851565b6040518080602001828103825283818151815260200191508051906020019080838360005b8381101561029b578082015181840152602081019050610280565b50505050905090810190601f1680156102c85780820380516001836020036101000a031916815260200191505b509250505060405180910390f35b6102de610901565b6040518082815260200191505060405180910390f35b6103406004803603604081101561030a57600080fd5b81019080803573ffffffffffffffffffffffffffffffffffffffff16906020019092919080359060200190929190505050610907565b604051808215151515815260200191505060405180910390f35b61044b6004803603608081101561037057600080fd5b81019080803573ffffffffffffffffffffffffffffffffffffffff169060200190929190803590602001906401000000008111156103ad57600080fd5b8201836020820111156103bf57600080fd5b803590602001918460018302840111640100000000831117156103e157600080fd5b91908080601f016020809104026020016040519081016040528093929190818152602001838380828437600081840152601f19601f82011690508083019250505050505050919291929080351515906020019092919080351515906020019092919050505061096f565b604051808215151515815260200191505060405180910390f35b61049b6004803603604081101561047b57600080fd5b810190808035906020019092919080359060200190929190505050610c41565b604051808215151515815260200191505060405180910390f35b6104e1600480360360208110156104cb57600080fd5b8101908080359060200190929190505050610c70565b604051808215151515815260200191505060405180910390f35b6105476004803603604081101561051157600080fd5b81019080803573ffffffffffffffffffffffffffffffffffffffff16906020019092919080359060200190929190505050610e78565b604051808215151515815260200191505060405180910390f35b61058d6004803603602081101561057757600080fd5b8101908080359060200190929190505050610ea7565b604051808273ffffffffffffffffffffffffffffffffffffffff1673ffffffffffffffffffffffffffffffffffffffff16815260200191505060405180910390f35b61061b600480360360408110156105e557600080fd5b81019080803573ffffffffffffffffffffffffffffffffffffffff16906020019092919080359060200190929190505050610eda565b604051808215151515815260200191505060405180910390f35b6106816004803603604081101561064b57600080fd5b81019080803573ffffffffffffffffffffffffffffffffffffffff16906020019092919080359060200190929190505050610f09565b604051808215151515815260200191505060405180910390f35b6106a3610f71565b6040518082815260200191505060405180910390f35b6106c1610f77565b604051808273ffffffffffffffffffffffffffffffffffffffff1673ffffffffffffffffffffffffffffffffffffffff16815260200191505060405180910390f35b60086020528060005260406000206000915090508054600181600116156101000203166002900480601f0160208091040260200160405190810160405280929190818152602001828054600181600116156101000203166002900480156107ab5780601f10610780576101008083540402835291602001916107ab565b820191906000526020600020905b81548152906001019060200180831161078e57829003601f168201915b505050505081565b60018054600181600116156101000203166002900480601f0160208091040260200160405190810160405280929190818152602001828054600181600116156101000203166002900480156108495780601f1061081e57610100808354040283529160200191610849565b820191906000526020600020905b81548152906001019060200180831161082c57829003601f168201915b505050505081565b60096020528060005260406000206000915090508054600181600116156101000203166002900480601f0160208091040260200160405190810160405280929190818152602001828054600181600116156101000203166002900480156108f95780601f106108ce576101008083540402835291602001916108f9565b820191906000526020600020905b8154815290600101906020018083116108dc57829003601f168201915b505050505081565b60025481565b6000600c60008473ffffffffffffffffffffffffffffffffffffffff1673ffffffffffffffffffffffffffffffffffffffff168152602001908152602001600020600083815260200190815260200160002060009054906101000a900460ff16905092915050565b60008060009054906101000a900473ffffffffffffffffffffffffffffffffffffffff1673ffffffffffffffffffffffffffffffffffffffff163373ffffffffffffffffffffffffffffffffffffffff1614610a33576040517f08c379a00000000000000000000000000000000000000000000000000000000081526004018080602001828103825260208152602001807f4e6f7420746865206f776e6572206f6620736f7572636520636f6e747261637481525060200191505060405180910390fd5b8280610a3c5750815b610aae576040517f08c379a000000000000000000000000000000000000000000000000000000000815260040180806020018281038252601f8152602001807f43616e6e6f7420626520626f746820657263323020616e64206572633732310081525060200191505060405180910390fd5b8360019080519060200190610ac4929190610f9c565b5083600860008773ffffffffffffffffffffffffffffffffffffffff1673ffffffffffffffffffffffffffffffffffffffff1681526020019081526020016000209080519060200190610b18929190610f9c565b5060016009600060025481526020019081526020016000209080546001816001161561010002031660029004610b4f92919061101c565b5084600b6000600254815260200190815260200160002060006101000a81548173ffffffffffffffffffffffffffffffffffffffff021916908373ffffffffffffffffffffffffffffffffffffffff16021790555082600a600060025481526020019081526020016000206000600354815260200190815260200160002060006101000a81548160ff02191690831515021790555081600a600060025481526020019081526020016000206000600454815260200190815260200160002060006101000a81548160ff021916908315150217905550600160026000828254019250508190555060019050949350505050565b600a6020528160005260406000206020528060005260406000206000915091509054906101000a900460ff1681565b6000600a60008381526020019081526020016000206000600354815260200190815260200160002060009054906101000a900460ff1615610e2c576000600b600084815260200190815260200160002060009054906101000a900473ffffffffffffffffffffffffffffffffffffffff1690508073ffffffffffffffffffffffffffffffffffffffff166370a08231336040518263ffffffff1660e01b8152600401808273ffffffffffffffffffffffffffffffffffffffff1673ffffffffffffffffffffffffffffffffffffffff168152602001915050602060405180830381600087803b158015610d6257600080fd5b505af1158015610d76573d6000803e3d6000fd5b505050506040513d6020811015610d8c57600080fd5b81019080805190602001909291905050506007819055506006546007541115610e22576001600c60003373ffffffffffffffffffffffffffffffffffffffff1673ffffffffffffffffffffffffffffffffffffffff168152602001908152602001600020600085815260200190815260200160002060006101000a81548160ff0219169083151502179055506001915050610e73565b6000915050610e73565b600a60008381526020019081526020016000206000600454815260200190815260200160002060009054906101000a900460ff1615610e6e5760019050610e73565b600090505b919050565b600d6020528160005260406000206020528060005260406000206000915091509054906101000a900460ff1681565b600b6020528060005260406000206000915054906101000a900473ffffffffffffffffffffffffffffffffffffffff1681565b600c6020528160005260406000206020528060005260406000206000915091509054906101000a900460ff1681565b6000600d60008473ffffffffffffffffffffffffffffffffffffffff1673ffffffffffffffffffffffffffffffffffffffff168152602001908152602001600020600083815260200190815260200160002060009054906101000a900460ff16905092915050565b60075481565b6000809054906101000a900473ffffffffffffffffffffffffffffffffffffffff1681565b828054600181600116156101000203166002900490600052602060002090601f016020900481019282601f10610fdd57805160ff191683800117855561100b565b8280016001018555821561100b579182015b8281111561100a578251825591602001919060010190610fef565b5b50905061101891906110a3565b5090565b828054600181600116156101000203166002900490600052602060002090601f016020900481019282601f106110555780548555611092565b8280016001018555821561109257600052602060002091601f016020900482015b82811115611091578254825591600101919060010190611076565b5b50905061109f91906110a3565b5090565b6110c591905b808211156110c15760008160009055506001016110a9565b5090565b9056fea26469706673582212202065d686624cfc9167827b4a1a11e1ac99222e3d32de4435aa5ad9e7f8f4b1c864736f6c63430006000033",
  "source": "/*\nTitle: Reputation and Achievement DApp, 'RAD'\nDescription: 'Achievement' creators can generate achievements for users to earn\n             by interacting with whitelisted smart contracts.\n\nAuthors: Brock Smedley and Alexander Angel\n.*/\n\n\npragma solidity ^0.6.0;\n\nabstract contract RadInterface {\n\n    /// @notice `msg.sender` Generates a reward 'reward' to grant address 'source'.\n    /// @param _source The address of the achievement owner\n    /// @param _reward A string \n    /// @param _erc20 A bool to check for erc20 interface\n    /// @param _erc721 A bool to check for erc721 interface\n    /// @return success Whether the post was successful or not\n    function postReward(address _source, string memory _reward, bool _erc20, bool _erc721) public virtual returns (bool success);\n\n}\n\nabstract contract Token {\n    function balanceOf(address _owner) virtual external returns(uint256);\n}\n\n\ncontract Rad is RadInterface {\n    /*\n    Events:\n        Create Reward, Claimed Reward, Expire Reward claim period, Approve reward view\n    Public functions:\n\n    Functions:\n        generate reward: address smartcontract, \n\n    */\n\n    event PostReward(address indexed _creator, address indexed _source, string _metadata);\n    event ClaimReward(address indexed _owner, address indexed _source);\n    event ExpireReward(address indexed _creator, address indexed _source);\n    event Approve(address indexed _approver, address indexed _approved);\n\n    address public admin;\n    string public reward;\n    uint256 public rewardNonce;\n    uint256 private erc20Id;\n    uint256 private erc721Id;\n    uint256 private typeId;\n\n    uint256 private balThreshold;\n\n    uint256 public testBalance;\n\n\n    mapping (address => string) public rewards;\n    mapping (uint256 => string) public rewardId;\n    mapping (uint256 => mapping (uint256 => bool)) public interfaceType;\n    mapping (uint256 => address) public rewardAddress;\n    mapping (address => mapping(uint256 => bool)) public catalogue;\n    mapping (address => mapping(uint256 => bool)) public posters;\n\n    constructor() public {\n        admin = msg.sender;\n        rewardNonce = 0;\n        erc20Id = 1;\n        erc721Id = 2;\n        balThreshold = 10**18;\n    }\n\n\n    function postReward(address _source, string memory _reward, bool _erc20, bool _erc721) public override returns (bool success) {\n        require(msg.sender == admin, 'Not the owner of source contract'); // placeholder for checking owner of source contract\n        require(_erc20 || _erc721, 'Cannot be both erc20 and erc721');\n        \n        reward = _reward;\n        rewards[_source] = _reward;\n        rewardId[rewardNonce] = reward;\n        rewardAddress[rewardNonce] = _source;\n\n        interfaceType[rewardNonce][erc20Id] = _erc20;\n        interfaceType[rewardNonce][erc721Id] = _erc721;\n        \n        rewardNonce += 1;\n        return true;\n    }\n\n    function claimReward(uint256 _identification) public returns (bool success) {\n        if (interfaceType[_identification][erc20Id]) {\n            Token erc20 = Token(rewardAddress[_identification]);\n            testBalance = erc20.balanceOf(msg.sender);\n            if (testBalance > balThreshold){\n                catalogue[msg.sender][_identification] = true;\n                return true;\n            }\n            return false;\n        }\n\n        if (interfaceType[_identification][erc721Id]) {\n            return true;\n        }\n        \n        return false;\n    }\n    \n    function isRewardClaimant(address _address, uint256 _identification) public view returns (bool) {\n        return catalogue[_address][_identification];\n    }\n\n    function isRewardPoster(address _owner, uint256 _identification) public view returns (bool) {\n        return posters[_owner][_identification];\n    }\n}",
  "sourcePath": "/Users/brock/Documents/GitHub/arrakis-buidl/contracts/Rad.sol",
  "compiler": {
    "name": "solc",
    "version": "0.6.0+commit.26b70077.Emscripten.clang"
  },
  "schemaVersion": "3.0.23",
  "updatedAt": "2020-02-16T01:33:14.569Z",
  "networkType": "ethereum",
  "devdoc": {
    "methods": {}
  },
  "userdoc": {
    "methods": {}
  }
}